:020000040800F2
:1000000000500020751A0008A1160008A716000865
:10001000AD160008B3160008B9160008000000006D
:10002000000000000000000000000000BF160008F3
:10003000CB16000800000000D7160008E3160008E1
:10004000BD1A0008BD1A0008BD1A0008BD1A000834
:10005000BD1A0008BD1A0008BD1A0008BD1A000824
:10006000BD1A0008BD1A0008BD1A0008BD1A000814
:10007000BD1A0008BD1A0008BD1A0008BD1A000804
:10008000BD1A0008BD1A0008BD1A0008BD1A0008F4
:10009000BD1A0008BD1A0008BD1A0008BD1A0008E4
:1000A000BD1A0008BD1A0008BD1A0008BD1A0008D4
:1000B000BD1A0008BD1A0008BD1A0008BD1A0008C4
:1000C000BD1A0008BD1A0008BD1A0008BD1A0008B4
:1000D000BD1A0008BD1A0008BD1A0008BD1A0008A4
:1000E000BD1A0008BD1A0008BD1A00080000000073
:1000F0000000000000000000000000000000000000
:0C01000000000000000000005FF808F1A3
:1001100010B5054C237833B9044B13B10448AFF341
:1001200000800123237010BDF801002000000000B2
:10013000DC91000808B5034B1BB103490348AFF33A
:10014000008008BD00000000FC010020DC910008D8
:10015000034613F8012B002AFBD1181A0138704707
:1001600081F0004102E000BF83F0004330B54FEA68
:1001700041044FEA430594EA050F08BF90EA020FD5
:100180001FBF54EA000C55EA020C7FEA645C7FEA68
:10019000655C00F0E2804FEA5454D4EB5555B8BF8B
:1001A0006D420CDD2C4480EA020281EA030382EAFC
:1001B000000083EA010180EA020281EA0303362D8E
:1001C00088BF30BD11F0004F4FEA01314FF4801C61
:1001D0004CEA113102D0404261EB410113F0004F73
:1001E0004FEA03334CEA133302D0524263EB43032A
:1001F00094EA050F00F0A780A4F10104D5F1200EC8
:100200000DDB02FA0EFC22FA05F2801841F1000122
:1002100003FA0EF2801843FA05F359410EE0A5F1F6
:1002200020050EF1200E012A03FA0EFC28BF4CF027
:10023000020C43FA05F3C01851EBE37101F00045DD
:1002400007D54FF0000EDCF1000C7EEB00006EEBEA
:100250000101B1F5801F1BD3B1F5001F0CD3490874
:100260005FEA30004FEA3C0C04F101044FEA4452CB
:1002700012F5800F80F09A80BCF1004F08BF5FEA52
:10028000500C50F1000041EB045141EA050130BD32
:100290005FEA4C0C404141EB0101013C28BFB1F544
:1002A000801FE9D291F0000F04BF01460020B1FA8F
:1002B00081F308BF2033A3F10B03B3F120020CDA62
:1002C0000C3208DD02F1140CC2F10C0201FA0CF040
:1002D00021FA02F10CE002F11402D8BFC2F1200CA5
:1002E00001FA02F120FA0CFCDCBF41EA0C0190405B
:1002F000E41AA2BF01EB0451294330BD6FEA0404A4
:100300001F3C1CDA0C340EDC04F11404C4F120028E
:1003100020FA04F001FA02F340EA030021FA04F3A0
:1003200045EA030130BDC4F10C04C4F1200220FAF7
:1003300002F001FA04F340EA0300294630BD21FA35
:1003400004F0294630BD94F0000F83F4801306BFFB
:1003500081F480110134013D4EE77FEA645C18BFEF
:100360007FEA655C29D094EA050F08BF90EA020F86
:1003700005D054EA000C04BF1946104630BD91EA7E
:10038000030F1EBF0021002030BD5FEA545C05D181
:100390004000494128BF41F0004130BD14F58004C0
:1003A0003CBF01F5801130BD01F0004545F0FE4134
:1003B00041F470014FF0000030BD7FEA645C1ABF69
:1003C000194610467FEA655C1CBF0B46024650EAA0
:1003D000013406BF52EA033591EA030F41F40021CC
:1003E00030BD00BF90F0000F04BF0021704730B552
:1003F0004FF4806404F132044FF000054FF0000127
:1004000050E700BF90F0000F04BF0021704730B5E7
:100410004FF4806404F1320410F0004548BF4042BC
:100420004FF000013EE700BF42004FEAE2014FEA11
:1004300031014FEA02701FBF12F07F4393F07F4FEC
:1004400081F06051704732F07F4208BF704793F0EF
:100450007F4F04BF41F40021704730B54FF4607402
:1004600001F0004521F000411CE700BF50EA010205
:1004700008BF704730B54FF000050AE050EA0102AE
:1004800008BF704730B511F0004502D5404261EB1E
:1004900041014FF4806404F132045FEA915C3FF45F
:1004A000D8AE4FF003025FEADC0C18BF03325FEAFC
:1004B000DC0C18BF033202EBDC02C2F1200300FAAD
:1004C00003FC20FA02F001FA03FE40EA0E0021FAD2
:1004D00002F11444BDE600BF70B54FF0FF0C4CF4C0
:1004E000E06C1CEA11541DBF1CEA135594EA0C0F72
:1004F00095EA0C0F00F0DEF82C4481EA030621EAAD
:100500004C5123EA4C5350EA013518BF52EA0335E7
:1005100041F4801143F4801338D0A0FB02CE4FF099
:100520000005E1FB02E506F00042E0FB03E54FF0C9
:100530000006E1FB03569CF0000F18BF4EF0010EC1
:10054000A4F1FF04B6F5007F64F5407404D25FEABD
:100550004E0E6D4146EB060642EAC62141EA555170
:100560004FEAC52040EA5E504FEACE2EB4F1FD0CB2
:1005700088BFBCF5E06F1ED8BEF1004F08BF5FEA30
:10058000500E50F1000041EB045170BD06F00046E2
:1005900046EA010140EA020081EA0301B4EB5C048F
:1005A000C2BFD4EB0C0541EA045170BD41F4801187
:1005B0004FF0000E013C00F3AB8014F1360FDEBFAC
:1005C000002001F0004170BDC4F10004203C35DA88
:1005D0000C341BDC04F11404C4F1200500FA05F30B
:1005E00020FA04F001FA05F240EA020001F00042AC
:1005F00021F0004110EBD37021FA04F642EB060122
:100600005EEA430E08BF20EAD37070BDC4F10C044B
:10061000C4F1200500FA04F320FA05F001FA04F20F
:1006200040EA020001F0004110EBD37041F10001FB
:100630005EEA430E08BF20EAD37070BDC4F1200506
:1006400000FA05F24EEA020E20FA04F301FA05F26E
:1006500043EA020321FA04F001F0004121FA04F216
:1006600020EA020000EBD3705EEA430E08BF20EAE6
:10067000D37070BD94F0000F0FD101F00046400020
:1006800041EB010111F4801F08BF013CF7D041EAA2
:10069000060195F0000F18BF704703F000465200A6
:1006A00043EB030313F4801F08BF013DF7D043EA77
:1006B0000603704794EA0C0F0CEA135518BF95EA2D
:1006C0000C0F0CD050EA410618BF52EA4306D1D1B4
:1006D00081EA030101F000414FF0000070BD50EAD3
:1006E000410606BF1046194652EA430619D094EA5D
:1006F0000C0F02D150EA013613D195EA0C0F05D147
:1007000052EA03361CBF104619460AD181EA03019A
:1007100001F0004141F0FE4141F470014FF0000052
:1007200070BD41F0FE4141F4780170BD70B54FF0ED
:10073000FF0C4CF4E06C1CEA11541DBF1CEA13556D
:1007400094EA0C0F95EA0C0F00F0A7F8A4EB05044F
:1007500081EA030E52EA03354FEA013100F0888046
:100760004FEA03334FF0805545EA131343EA12630F
:100770004FEA022245EA111545EA10654FEA0026C4
:100780000EF000419D4208BF964244F1FD0404F57D
:10079000407402D25B084FEA3202B61A65EB0305D9
:1007A0005B084FEA32024FF480104FF4002CB6EB96
:1007B000020E75EB030E22BFB61A754640EA0C0016
:1007C0005B084FEA3202B6EB020E75EB030E22BF56
:1007D000B61A754640EA5C005B084FEA3202B6EB97
:1007E000020E75EB030E22BFB61A754640EA9C0056
:1007F0005B084FEA3202B6EB020E75EB030E22BF26
:10080000B61A754640EADC0055EA060E18D04FEAE3
:10081000051545EA16754FEA06164FEAC30343EA83
:1008200052734FEAC2025FEA1C1CC0D111F4801F50
:100830000BD141EA00014FF000004FF0004CB6E749
:1008400011F4801F04BF01430020B4F1FD0C88BFE8
:10085000BCF5E06F3FF6AFAEB5EB030C04BFB6EBF3
:10086000020C5FEA500C50F1000041EB045170BDE6
:100870000EF0004E4EEA113114EB5C04C2BFD4EB13
:100880000C0541EA045170BD41F480114FF0000E97
:10089000013C90E645EA060E8DE60CEA135594EA13
:1008A0000C0F08BF95EA0C0F3FF43BAF94EA0C0F16
:1008B0000AD150EA01347FF434AF95EA0C0F7FF48B
:1008C00025AF104619462CE795EA0C0F06D152EADF
:1008D00003353FF4FDAE1046194622E750EA4106C3
:1008E00018BF52EA43067FF4C5AE50EA41047FF4D4
:1008F0000DAF52EA43057FF4EBAE12E74FF0FF3C39
:1009000006E000BF4FF0010C02E000BF4FF0010C09
:100910004DF804CD4FEA410C7FEA6C5C4FEA430C82
:1009200018BF7FEA6C5C1BD001B050EA410C0CBFD1
:1009300052EA430C91EA030F02BF90EA020F002033
:10094000704710F1000F91EA030F58BF994208BF9A
:1009500090422CBFD8176FEAE37040F00100704757
:100960004FEA410C7FEA6C5C02D150EA013C07D1AE
:100970004FEA430C7FEA6C5CD6D152EA033CD3D0F9
:100980005DF8040B704700BF8446104662468C46F3
:100990001946634600E000BF01B5FFF7B7FF002826
:1009A00048BF10F1000F01BD4DF808EDFFF7F4FF4F
:1009B0000CBF012000205DF808FB00BF4DF808EDDA
:1009C000FFF7EAFF34BF012000205DF808FB00BFFD
:1009D0004DF808EDFFF7E0FF94BF012000205DF81F
:1009E00008FB00BF4DF808EDFFF7CEFF94BF0120D4
:1009F00000205DF808FB00BF4DF808EDFFF7C4FFCD
:100A000034BF012000205DF808FB00BF4FEA410C15
:100A10007FEA6C5C02D150EA013C0AD14FEA430CF8
:100A20007FEA6C5C02D152EA033C02D14FF0000035
:100A300070474FF0010070474A0011D212F50012C2
:100A400011D20DD56FF47873B3EB62520ED44FEA26
:100A5000C12343F0004343EA505323FA02F07047A6
:100A60004FF00000704750EA013002D14FF0FF30E4
:100A700070474FF0000070474FEA4102B2F1E04387
:100A800024BFB3F5001CDCF1FE5C0DD901F0004C75
:100A90004FEAC0024CEA5070B2F1004F40EB8300C5
:100AA00008BF20F00100704711F0804F21D113F1F1
:100AB0003872BCBF01F00040704741F480114FEA2A
:100AC0005252C2F11802C2F1200C10FA0CF320FAB3
:100AD00002F018BF40F001004FEAC1234FEAD323D0
:100AE00003FA0CFC40EA0C0023FA02F34FEA43033A
:100AF000CCE77FEA625307D150EA01331EBF4FF0C3
:100B0000FE4040F44000704701F0004040F0FE40DD
:100B100040F40000704700BF80F0004002E000BFDA
:100B200081F0004142001FBF5FEA410392EA030FD8
:100B30007FEA226C7FEA236C6AD04FEA1262D2EB22
:100B40001363C1BFD218414048404140B8BF5B4227
:100B5000192B88BF704710F0004F40F4000020F0C0
:100B60007F4018BF404211F0004F41F4000121F0D6
:100B70007F4118BF494292EA030F3FD0A2F1010220
:100B800041FA03FC10EB0C00C3F1200301FA03F15E
:100B900000F0004302D5494260EB4000B0F5000F81
:100BA00013D3B0F1807F06D340084FEA310102F140
:100BB0000102FE2A51D2B1F1004F40EBC25008BFF2
:100BC00020F0010040EA03007047490040EB0000BC
:100BD000013A28BFB0F5000FEDD2B0FA80FCACF1BD
:100BE000080CB2EB0C0200FA0CF0AABF00EBC250EA
:100BF00052421843BCBFD0401843704792F0000FD8
:100C000081F4000106BF80F400000132013BB5E72A
:100C10004FEA41037FEA226C18BF7FEA236C21D0A0
:100C200092EA030F04D092F0000F08BF0846704705
:100C300090EA010F1CBF0020704712F07F4F04D1D3
:100C4000400028BF40F00040704712F100723CBFE6
:100C500000F50000704700F0004343F0FE4040F410
:100C6000000070477FEA226216BF08467FEA2363CE
:100C70000146420206BF5FEA412390EA010F40F4B9
:100C8000800070474FF0000304E000BF10F0004305
:100C900048BF40425FEA000C08BF704743F09643EC
:100CA00001464FF000001CE050EA010208BF704707
:100CB0004FF000030AE000BF50EA010208BF70478E
:100CC00011F0004302D5404261EB41015FEA010CA3
:100CD00002BF84460146002043F0B64308BFA3F19B
:100CE0008053A3F50003BCFA8CF2083AA3EBC2537D
:100CF00010DB01FA02FC634400FA02FCC2F120029C
:100D0000BCF1004F20FA02F243EB020008BF20F0D2
:100D10000100704702F1200201FA02FCC2F1200238
:100D200050EA4C0021FA02F243EB020008BF20EA2D
:100D3000DC7070474FF0FF0C1CEAD0521EBF1CEA5B
:100D4000D15392EA0C0F93EA0C0F6FD01A4480EA49
:100D5000010C400218BF5FEA41211ED04FF0006332
:100D600043EA501043EA5111A0FB01310CF000405E
:100D7000B1F5000F3EBF490041EAD3715B0040EA84
:100D8000010062F17F02FD2A1DD8B3F1004F40EB54
:100D9000C25008BF20F00100704790F0000F0CF027
:100DA000004C08BF49024CEA502040EA51207F3AEB
:100DB000C2BFD2F1FF0340EAC250704740F40000C6
:100DC0004FF00003013A5DDC12F1190FDCBF00F0B7
:100DD00000407047C2F10002410021FA02F1C2F165
:100DE000200200FA02FC5FEA310040F1000053EA01
:100DF0004C0308BF20EADC70704792F0000F00F04F
:100E0000004C02BF400010F4000F013AF9D040EA54
:100E10000C0093F0000F01F0004C02BF490011F4E8
:100E2000000F013BF9D041EA0C018FE70CEAD153E6
:100E300092EA0C0F18BF93EA0C0F0AD030F0004C66
:100E400018BF31F0004CD8D180EA010000F000401A
:100E5000704790F0000F17BF90F0004F084691F0D8
:100E6000000F91F0004F14D092EA0C0F01D1420212
:100E70000FD193EA0C0F03D14B0218BF084608D1DB
:100E800080EA010000F0004040F0FE4040F4000025
:100E9000704740F0FE4040F4400070474FF0FF0CB8
:100EA0001CEAD0521EBF1CEAD15392EA0C0F93EAFF
:100EB0000C0F69D0A2EB030280EA010C49024FEA51
:100EC000402037D04FF0805343EA111143EA10130A
:100ED0000CF000408B4238BF5B0042F17D024FF4C2
:100EE000000C8B4224BF5B1A40EA0C00B3EB510F9D
:100EF00024BFA3EB510340EA5C00B3EB910F24BF86
:100F0000A3EB910340EA9C00B3EBD10F24BFA3EB0A
:100F1000D10340EADC001B0118BF5FEA1C1CE0D1D2
:100F2000FD2A3FF650AF8B4240EBC25008BF20F085
:100F3000010070470CF0004C4CEA50207F32C2BFD9
:100F4000D2F1FF0340EAC250704740F400004FF076
:100F50000003013A37E792F0000F00F0004C02BFA7
:100F6000400010F4000F013AF9D040EA0C0093F071
:100F7000000F01F0004C02BF490011F4000F013BCB
:100F8000F9D041EA0C0195E70CEAD15392EA0C0F33
:100F900008D142027FF47DAF93EA0C0F7FF470AF6B
:100FA000084676E793EA0C0F04D14B023FF44CAFAE
:100FB00008466EE730F0004C18BF31F0004CCAD143
:100FC00030F000427FF45CAF31F000437FF43CAF7F
:100FD0005FE700BF38B50C4605462146284600228B
:100FE0000023FFF7EBFC28B928462146BDE838402E
:100FF00000F00AB8284604F1004100F005F840422C
:1010000061EB410138BD00BFD0B500220B4B064655
:101010000F46FFF761FAFFF70FFD0446FFF7E2F90D
:101020000022074BFFF758FA02460B463046394676
:10103000FFF79AF8FFF700FD2146D0BD0000F03D14
:101040000000F04180B500AF164B174A1A60154BEF
:1010500010225A60134B00229A60124B0022DA6071
:10106000104B00221A610F4B00225A610D4B0022D7
:101070001A760C4B00225A760A4B00229A76094BBC
:101080000022DA76074B00221A77064B00225A77A5
:10109000044801F0B5FD0346002B01D000F0B8F87C
:1010A00000BF80BDD40700200064004080B586B03A
:1010B00000AF07F1080300221A605A609A60DA60F4
:1010C000284B9B69274A43F004039361254B9B6996
:1010D00003F004037B607B68224B9B69214A43F049
:1010E000080393611F4B9B6903F008033B603B6857
:1010F00000223C211C4802F018FB00224FF4406102
:101100001A4802F012FB3C23BB600123FB60002362
:101110003B6102237B6107F108031946124802F084
:1011200069F941F20403BB600023FB6000233B61CB
:1011300007F1080319460D4802F05CF94FF44063CB
:10114000BB600123FB6000233B6102237B6107F14D
:1011500008031946054802F04DF900BF1837BD468F
:1011600080BD00BF0010024000080140000C01409B
:1011700080B500AF01F0BEFC00F00FF8FFF796FF5E
:10118000FFF760FF00F04AF800F04AFC00F076FB41
:1011900000F0CCFB04F0EAFBFEE780B590B000AFB6
:1011A00007F1180328220021184604F059FD3B1DC1
:1011B00000221A605A609A60DA601A610223BB61E9
:1011C0000123BB621023FB6200237B6307F118033A
:1011D000184602F0C3FA0346002B01D000F018F8BD
:1011E0000F237B600023BB600023FB6000233B6177
:1011F00000237B613B1D0021184602F02FFD0346B2
:10120000002B01D000F004F800BF4037BD4680BD80
:1012100080B400AF72B600BFFEE7000080B500AF3B
:10122000174B184A1A60164B4FF482725A60144BCF
:1012300000229A60124B0022DA60114B00221A61E0
:101240000F4B00225A610E4B4FF400729A610C4B07
:101250000022DA610A4B00221A62094B00225A620C
:10126000074B00229A62064B0A22DA62044802F017
:101270008FFE0346002B01D0FFF7CAFF00BF80BDE1
:10128000440800200030014080B485B000AF154B09
:101290009B69144A43F001039361124B9B6903F06D
:1012A0000103BB60BB680F4BDB690E4A43F0805300
:1012B000D3610C4BDB6903F080537B607B680A4B86
:1012C0005B68FB60FB6823F0E063FB60FB6843F056
:1012D0000073FB60044AFB68536000BF1437BD46CF
:1012E00080BC7047001002400000014080B58AB009
:1012F00000AF786007F1140300221A605A609A6008
:10130000DA607B681B68254A934243D1244BDB6932
:10131000234A43F00073D361214BDB6903F0007370
:101320003B613B691E4B9B691D4A43F00803936177
:101330001B4B9B6903F00803FB60FB684FF4807351
:101340007B610023BB610023FB6107F11403194695
:10135000144802F04FF84FF400737B610223BB6125
:1013600003233B6207F1140319460E4802F042F8CA
:101370000D4B5B687B627B6A23F4C0437B627B6AB4
:1013800043F0E0637B627B6A43F480437B62064AFE
:101390007B6A536000BF2837BD4680BD00640040B3
:1013A00000100240000C01400000014080B58AB0EE
:1013B00000AF786007F1140300221A605A609A6047
:1013C000DA607B681B682F4A934256D12E4B9B698B
:1013D0002D4A43F4805393612B4B9B6903F4805354
:1013E0003B613B69284B9B69274A43F004039361A7
:1013F000254B9B6903F00403FB60FB68224B9B6950
:10140000214A43F0080393611F4B9B6903F00803D3
:10141000BB60BB684FF400437B610223BB610323C5
:101420003B6207F114031946184801F0E3FF282333
:101430007B610223BB6103233B6207F1140319465E
:10144000134801F0D7FF10237B610023BB61002309
:10145000FB6107F1140319460D4801F0CBFF0D4B5A
:101460005B687B627B6A43F0E0637B627B6A43F08C
:1014700001037B62074A7B6A536000BF2837BD4681
:1014800080BD00BF00300140001002400008014054
:10149000000C01400000014080B588B000AF7860CA
:1014A00007F1100300221A605A609A60DA607B68C4
:1014B0001B68164A934224D1154B9B69144A43F486
:1014C00000639361124B9B6903F40063FB60FB684C
:1014D0000F4B9B690E4A43F0040393610C4B9B69CD
:1014E00003F00403BB60BB684FF440733B6100230F
:1014F0007B610023BB6107F110031946054801F029
:1015000079FF00BF2037BD4680BD00BF002C0140E1
:10151000001002400008014080B485B000AF786040
:101520007B681B68094A93420BD1094BDB69084A67
:1015300043F00203D361064BDB6903F00203FB6057
:10154000FB6800BF1437BD4680BC704700040040F4
:101550000010024080B588B000AF786007F110033A
:1015600000221A605A609A60DA607B681B681B4A26
:1015700093422FD11A4B9B69194A43F0040393619C
:10158000174B9B6903F00403FB60FB68144B9B69DA
:10159000134A43F008039361114B9B6903F008035E
:1015A000BB60BB68C0233B6102237B610223FB61FC
:1015B00007F1100319460B4801F01CFF03233B61A0
:1015C00002237B610223FB6107F1100319460648E1
:1015D00001F010FF00BF2037BD4680BD0004004071
:1015E0000010024000080140000C014080B58AB0A4
:1015F00000AF786007F1140300221A605A609A6005
:10160000DA607B681B68224A93423DD1214B9B697B
:10161000204A43F4804393611E4B9B6903F480434B
:101620003B613B691B4B9B691A4A43F0080393617A
:10163000184B9B6903F00803FB60FB6840237B6148
:101640000223BB6103233B6207F1140319461248CE
:1016500001F0D0FE80237B610023BB610023FB618E
:1016600007F1140319460C4801F0C4FE0B4B5B68EC
:101670007B627B6A43F0E0637B627B6A43F0040336
:101680007B62064A7B6A536000BF2837BD4680BD37
:101690000038014000100240000C014000000140F1
:1016A00080B400AFFEE780B400AFFEE780B400AFC7
:1016B000FEE780B400AFFEE780B400AFFEE780B481
:1016C00000AF00BFBD4680BC704780B400AF00BF14
:1016D000BD4680BC704780B400AF00BFBD4680BC33
:1016E000704780B500AF01F04BFA00BF80BD80B4F9
:1016F00000AF01231846BD4680BC704780B582B05C
:1017000000AF7860396004F081FA034616221A604F
:101710004FF0FF3318460837BD4680BD80B582B014
:1017200000AF78604FF0FF317868FFF7E7FFFEE722
:1017300080B586B000AFF860B9607A6000237B6145
:101740000AE0AFF300800146BB685A1CBA60CAB217
:101750001A707B6901337B617A697B689A42F0DB9E
:101760007B6818461837BD4680BD80B586B000AF8F
:10177000F860B9607A6000237B6109E0BB685A1C9D
:10178000BA601B781846AFF300807B6901337B6138
:101790007A697B689A42F1DB7B6818461837BD4648
:1017A00080BD80B483B000AF78604FF0FF3318463F
:1017B0000C37BD4680BC704780B483B000AF786002
:1017C00039603B684FF400525A60002318460C37CA
:1017D000BD4680BC704780B483B000AF7860012301
:1017E00018460C37BD4680BC704780B485B000AF4A
:1017F000F860B9607A60002318461437BD4680BC93
:101800007047000080B586B000AF7860144A154B71
:10181000D31A7B617B693B61134B1B68002B02D1A0
:10182000114B124A1A60104B1A687B6813443A69CC
:101830009A4207D204F0EAF903460C221A604FF0EC
:10184000FF3309E0084B1B68FB60074B1A687B6895
:101850001344054A1360FB6818461837BD4680BD1F
:10186000005000200004000014020020300A002074
:1018700080B400AF00BFBD4680BC704780B58CB05F
:1018800000AF07F10C0324220021184604F0E8F908
:101890003B1D00221A605A60224B234A1A60214BDA
:1018A00000225A601F4B00229A601E4B4FF6FF72B7
:1018B000DA601C4B00221A611A4B00225A61194B44
:1018C00000229A610123FB6000233B6101237B61BD
:1018D0000023BB610023FB6100233B6201237B6289
:1018E0000023BB620023FB6207F10C0319460D487D
:1018F00002F0BBFE0346002B01D0FFF789FC00235A
:101900007B600023BB603B1D1946064803F0F8F9D5
:101910000346002B01D0FFF77BFC00BF3037BD46EC
:1019200080BD00BFE4080020002C014080B58AB0D3
:1019300000AF07F1200300221A605A603B1D00220D
:101940001A605A609A60DA601A615A619A61324B81
:10195000324A1A60304B00225A602F4B00229A60A4
:101960002D4B4FF6FF72DA602B4B00221A612A4B87
:1019700000229A61284802F029FE0346002B01D07C
:10198000FFF746FC00233B6200237B6207F1200344
:101990001946214803F0B4F90346002B01D0FFF7A4
:1019A00037FC60237B600023BB600023FB600023C7
:1019B0007B613B1D00221946174802F0F9FE0346E1
:1019C000002B01D0FFF724FC3B1D042219461248CE
:1019D00002F0EEFE0346002B01D0FFF719FC3B1D81
:1019E000082219460C4802F0E3FE0346002B01D002
:1019F000FFF70EFC3B1D0C221946074802F0D8FEEB
:101A00000346002B01D0FFF703FC0348FFF7A2FDBC
:101A100000BF2837BD4680BD9C0800200004004060
:101A200080B500AF114B124A1A60104B4FF4E132EF
:101A30005A600E4B00229A600C4B0022DA600B4B6E
:101A400000221A61094B0C225A61084B00229A614C
:101A5000064B0022DA61054803F0B0F90346002B7B
:101A600001D0FFF7D5FB00BF80BD00BFB809002043
:101A7000003801400C480D490D4A002302E0D458BB
:101A8000C4500433C4188C42F9D30A4A0A4C0023C8
:101A900001E013600432A242FBD3FFF7E9FE04F039
:101AA000BBF8FFF765FB704700000020F401002041
:101AB000889F0008F8010020300A0020FEE780B56A
:101AC00082B000AF78607B681B6814331B6878684D
:101AD00098477B681B6818331B687868984700BF75
:101AE0000837BD4680BD000080B586B000AFF86005
:101AF000B9607A60BB689BB2C3F309039AB2FB6812
:101B00009A80FB689B8803F580739BB2C3F309033B
:101B10009AB2FB685A81FB685B891A46484B33F9D5
:101B20001220FB689A81FB689B881A46444B33F964
:101B30001220FB68DA807B68002BB8BF5B427B61B8
:101B40007B6941F2DB3202FB03F31B0B7B617B6998
:101B5000C3F30B037B61FB68B3F90C30002BB8BFF8
:101B60005B429BB21A467B6903FB02F31B0B9AB2E2
:101B7000FB68DA81FB68B3F90630002BB8BF5B4223
:101B80009BB21A467B6903FB02F31B0B9AB2FB68FC
:101B90001A81FB681B6810331B68FA68D189FA68E0
:101BA0001289F8689847FB68B3F90C30002B08DD00
:101BB000FB681B6820331B6800220121F8689847E6
:101BC00015E0FB68B3F90C30002B08DAFB681B68E2
:101BD00020331B6801220021F868984707E0FB6862
:101BE0001B6820331B6801220121F8689847FB68B5
:101BF000B3F90630002B08DDFB681B6824331B6833
:101C000000220121F868984715E0FB68B3F9063017
:101C1000002B08DAFB681B6824331B6801220021B3
:101C2000F868984707E0FB681B6824331B680122AB
:101C30000121F868984700BF1837BD4680BD00BF36
:101C40002092000880B582B000AF78600B467B80A0
:101C500013463B807B681B681C331B683A88798875
:101C60007868984700BF0837BD4680BD80B582B010
:101C700000AF78607B680022DA817B6800221A81DD
:101C80007B681B6810331B687A68D1897A6812896F
:101C9000786898477B681B6820331B680022002106
:101CA000786898477B681B6824331B6800220021F2
:101CB0007868984700BF0837BD4680BD80B582B0C0
:101CC00000AF78607B680022DA817B6800221A818D
:101CD0007B681B6810331B687A68D1897A6812891F
:101CE000786898477B681B6820331B6801220121B4
:101CF000786898477B681B6824331B6801220121A0
:101D00007868984700BF0837BD4680BD80B582B06F
:101D100000AF78607B685B68D3F8B4305B691946C4
:101D2000786800F004F800BF0837BD4680BD80B475
:101D300083B000AF786039607B683A689A6000BF12
:101D40000C37BD4680BC704780B582B000AF78606C
:101D50007B685B68D3F8B4301B691946786800F07B
:101D600004F800BF0837BD4680BD80B483B000AF23
:101D7000786039607B683A689A6000BF0C37BD466E
:101D800080BC704780B582B000AF78607B689B688C
:101D9000D3F8B4301B691946786800F013F87B68F3
:101DA0009B68D3F8B4301B69054A82FB0312921179
:101DB000DB17D21A7B689A6100BF0837BD4680BD29
:101DC000D34D621080B582B000AF786039607B6817
:101DD0003A68DA607B683A681A617B681B69184662
:101DE000FEF754FF034619464FF07C50FFF756F8B4
:101DF00003461A467B685A6100BF0837BD4680BD5E
:101E000080B483B000AF786000BF0C37BD4680BCA3
:101E1000704780B483B000AF786039607B683A68FF
:101E2000DA6000BF0C37BD4680BC704780B582B019
:101E300000AF786039607B689B68D3F8B4301B6969
:101E400019467868FFF7E5FF7B683A689A6100BF3A
:101E50000837BD4680BD80B582B000AF786039607C
:101E60007B683A68C3F8B4207B6808331846FFF7EC
:101E70004DFF7B681C331846FFF766FF7B683033E5
:101E80001846FFF77FFF7B685C331846FFF7B8FF03
:101E90007B687C33C8211846FFF7C8FF00BF0837AE
:101EA000BD4680BD80B483B000AF786039607B6888
:101EB0003A68C3F8442100BF0C37BD4680BC704768
:101EC00080B483B000AF786039607B683A68C3F84B
:101ED000482100BF0C37BD4680BC704780B483B03A
:101EE00000AF786039607B689B68DA683B681A44A9
:101EF0007B685A6300BF0C37BD4680BC704780B416
:101F000083B000AF786039607B689B689B695B42F7
:101F10003A689A4208DB7B689B689B693A689A42F8
:101F200002DC7B683A689A6300BF0C37BD4680BC10
:101F3000704780B483B000AF786039607B689B687D
:101F40005B693A689A4205DD7B689B685A697B68E1
:101F5000DA6310E07B689B685B695B423A689A428F
:101F600006DA7B689B685B695A427B68DA6302E049
:101F70007B683A68DA6300BF0C37BD4680BC7047A7
:101F800080B483B000AF78607B6800229A657B687C
:101F90000022DA7100BF0C37BD4680BC70470000DC
:101FA00080B483B000AF7860564B93F83030002B8C
:101FB00003D0544BDB68DAB200E000227B681A7170
:101FC0007B6800225A717B6800229A717B6800222C
:101FD000DA607B6800221A617B6800225A617B68A4
:101FE00000229A617B6800221A627B680022DA6113
:101FF0007B6800225A627B6800229A627B6800221A
:10200000DA627B689B68DA687B685A637B680022C7
:102010009A637B680022DA637B68002283F84020A1
:102020007B68002283F841207B6800225A647B6829
:1020300000229A647B680022DA647B68002283F8BD
:1020400050207B68002283F851207B68002283F8AF
:1020500052207B6800225A657B6800221A637B68E5
:1020600000229A657B680022DA717B680022DA65BB
:102070007B68002283F860207B681B6800221A615D
:102080007B681B6800225A617B681B6800229A618A
:102090007B681B680022DA617B681B6800221A6279
:1020A0007B681B6800225A627B681B6800229A6268
:1020B0007B681B680022DA627B681B6800221A6456
:1020C0007B681B6800225A647B681B6800229A6444
:1020D0007B681B680022DA647B681B6800221A6533
:1020E0007B681B6800225A657B681B6800229A6522
:1020F0007B681B680022DA6500BF0C37BD4680BCD8
:10210000704700BF1802002080B483B000AF786031
:1021100039607B683A681A6000BF0C37BD4680BCE6
:102120007047000090B587B000AF78607B689B680F
:10213000D3F84431DB68A34A82FB03129211DB1708
:10214000D31AFB6000237B617B69C82B1FD87B6897
:102150007A691C3233F8123018467A687B69E433A6
:102160005B0013445B8819467B689B68D3F8443155
:10217000DB681A4600F0A7FB034699B27B687A69D0
:102180001C3223F812107B6901337B61DCE77B682A
:102190001B8F18467B68B3F8C63119467B689B686D
:1021A000D3F84431DB681A4600F06AFBB860BB68BC
:1021B000002B03D17B6801221A73FFE0BB68002B60
:1021C000CCBF01230023DAB27B681A7501237B613F
:1021D0007B69C72B5AD87B687A691C3233F8123076
:1021E00018467B695A1E7B681C3233F81230194638
:1021F0007B689B68D3F84431DB681A4600F040FBEB
:10220000B860BB6883EAE371A1EBE371FA68134637
:102210005B001344DA0F13445B10994203DD7B68C3
:1022200002221A73CAE0BB6883EAE372A2EBE3728C
:10223000FB68D90F0B445B109A4203DA7B680222D9
:102240001A73BBE0BB68002B03D17B6801221A73B1
:10225000B4E0BB68002B0ADD7B681B7D83F00103C3
:10226000DBB2002B03D07B6801221A73A6E0BB68A7
:10227000002B07DA7B681B7D002B03D07B680122D3
:102280001A739BE07B6901337B61A1E700233B610B
:102290007B681B7D002B46D000237B617B69C72BAD
:1022A0003AD87B690133C821184600F0D5FA0246B6
:1022B0007B681C3233F812301C46C821786900F064
:1022C000CBFA02467B681C3233F81230E31ABB604B
:1022D000BB68002B1CDA3B6901333B617A697B6880
:1022E000C3F85C237B689B68D3F84431DB685C1ED1
:1022F0007B68D3F85C33C821184600F0ADFA02467B
:102300007B681C3233F81230E21A7B68C3F8602312
:102310007B6901337B61C1E73B69012B4BD07B6853
:1023200003221A734AE000237B617B69C72B3BD8E9
:102330007B690133C821184600F08EFA02467B689B
:102340001C3233F812301C46C821786900F084FA38
:1023500002467B681C3233F81230E31ABB60BB685C
:10236000002B1DDD3B6901333B617A697B68C3F853
:102370005C237B689B68D3F84431DB685C1E7B6818
:10238000D3F85C330133C821184600F065FA0246E1
:102390007B681C3233F81230E21A7B68C3F8602382
:1023A0007B6901337B61C0E73B69012B03D07B680C
:1023B00003221A7302E07B6800221A731C37BD46A1
:1023C00090BD00BF1F85EB5190B587B000AF78601E
:1023D0007B685B7B062B40F03B827B689B68D3F875
:1023E00048217B689B68D3F848311B6808331B6819
:1023F000104698477868FFF795FE7B681B7B002B9B
:1024000040F0FC817B680022C3F864237B681B6872
:1024100008331B68786898477B681B681B68786876
:1024200098477B681B7D002B00F0E9807B68D3F820
:102430005C337B617B68D3F85C237B689B681B689B
:1024400013447A699A4200F3C6817B6901331A46C4
:102450007B689B681B681946104600F0FDF9024630
:102460007B681C3233F812301C467A697B689B68A3
:102470001B681946104600F0EFF902467B681C32D3
:1024800033F8123019467B689B68D3F84431DB6817
:102490001A46204600F0F4F9F8607B68D3F85C3304
:1024A0007A699A4235D17B68D3F860333B613A69E7
:1024B000FB689A4280F29F807B689B685B687A69C0
:1024C00002FB03F27B689B685B68396901FB03F1DF
:1024D000FB6891FBF3F313441A467B689B689B6887
:1024E0001946104600F0B8F903467B817B681B68EB
:1024F0000C331B687A891146786898477B68D3F853
:1025000064335A1C7B68C3F864233B6901333B6125
:10251000CDE77B68D3F85C237B689B681B6813441A
:102520007A699A4234D100233B617B68D3F86033E7
:102530003A699A425FDA7B689B685B687A6902FB5A
:1025400003F27B689B685B68396901FB03F1FB68F8
:1025500091FBF3F313441A467B689B689B6819460A
:10256000104600F079F903467B817B681B680C33C9
:102570001B687A891146786898477B68D3F864337A
:102580005A1C7B68C3F864233B6901333B61CCE789
:1025900000233B613A69FB689A422CDA7B689B68AE
:1025A0005B687A6902FB03F27B689B685B68396948
:1025B00001FB03F1FB6891FBF3F313441A467B68BC
:1025C0009B689B681946104600F046F903467B81DC
:1025D0007B681B680C331B687A89114678689847BA
:1025E0007B68D3F864335A1C7B68C3F864233B6967
:1025F00001333B61CEE77B6901337B611AE77B687E
:10260000D3F85C237B689B681B6813447B617B6801
:10261000D3F85C337A699A42C0F2DD807A697B68CC
:102620009B681B681946104600F016F902467B6845
:102630001C3233F812301C467B6901331A467B6822
:102640009B681B681946104600F006F902467B6835
:102650001C3233F8123019467B689B68D3F844313A
:10266000DB681A46204600F00BF9F8607B68D3F867
:102670005C237B689B681B6813447A699A4236D155
:102680007B68D3F860333B613A69FB689A4280F219
:102690009E807B689B685B687A69013202FB03F26B
:1026A0007B689B685B68396901FB03F1FB6891FB00
:1026B000F3F3D31A1A467B689B689B681946104649
:1026C00000F0CAF803467B817B681B680C331B68EB
:1026D0007A891146786898477B68D3F864335A1C26
:1026E0007B68C3F864233B6901333B61CCE77B68BB
:1026F000D3F85C337A699A4235D100233B617B6819
:10270000D3F860333A699A4261DA7B689B685B6808
:102710007A69013202FB03F27B689B685B68396966
:1027200001FB03F1FB6891FBF3F3D31A1A467B68B4
:102730009B689B681946104600F08EF803467B8123
:102740007B681B680C331B687A8911467868984748
:102750007B68D3F864335A1C7B68C3F864233B69F5
:1027600001333B61CBE700233B613A69FB689A4246
:102770002DDA7B689B685B687A69013202FB03F2A1
:102780007B689B685B68396901FB03F1FB6891FB1F
:10279000F3F3D31A1A467B689B689B681946104668
:1027A00000F05AF803467B817B681B680C331B687A
:1027B0007A891146786898477B68D3F864335A1C45
:1027C0007B68C3F864233B6901333B61CDE77B69D8
:1027D000013B7B611BE77B681B6804331B687868DF
:1027E00098477B68D3F864337A689268D2F84421BA
:1027F000D268934202D07B6804221A737B681B7BE9
:10280000002B06D17B689B68D3F8443101221A72F1
:102810000BE07B689B68D3F8443100221A727B6816
:102820001B6808331B68786898477B689B68D3F8F7
:1028300040310122DA717B6800225A737B680022E2
:102840001A717B681B7B002B03D100F0C2FB00E0F8
:1028500000BF1C37BD4690BD80B483B000AF786028
:1028600039607A683B6813443A68B3FBF2F239681E
:1028700001FB02F29B1A18460C37BD4680BC70471C
:1028800080B487B000AFF860B9607A60FA68BB685E
:10289000D31A7B617B685B107A699A4203DD7A699F
:1028A0007B68D31A7B617B685B425B107A699A42D2
:1028B00003DA7A697B6813447B617B6918461C37AD
:1028C000BD4680BC704780B487B000AFF860B96087
:1028D0007A60FA68BB68D31A3B61FA68BB68134434
:1028E0005B107B613B6983EAE372A2EBE3727B6876
:1028F0005B109A420FDD7B685B107A699A4205DBB8
:102900007B685B107A69D31A7B6104E07B685B109B
:102910007A6913447B617B6918461C37BD4680BCCD
:10292000704780B584B000AF78607B681B680C335B
:102930001B68786898477B681B6804331B68786855
:1029400098477B6801221A720023FB607B68DB6872
:102950001A46FB68934210D27B689A69FB685B0059
:1029600013441B884FF6FF72934202D17B6800220A
:102970001A72FB680133FB60E8E77B681B7A184634
:102980001037BD4680BD80B584B000AF78607B68ED
:102990004FF403429A837B684FF40442DA830023A6
:1029A000FB73FB7B022B59D87B681B6810331B68B9
:1029B0007A68928B11467868984703461A467B6876
:1029C0001A847B681B6810331B687A68D28B1146A7
:1029D0007868984703461A467B685A847B681B8C44
:1029E0001B021AB27B685B8C1BB2DBB21BB21343B7
:1029F0001BB29AB27B681A827B68002283F824207B
:102A00000023BB73BB7B0F2B15D87B681B8A1A4630
:102A1000BB7B42FA03F303F00103002B07D07B6872
:102A200093F824300133DAB27B6883F82420BB7B2F
:102A30000133BB73E6E77B6893F8243003F00103AE
:102A4000002B03D07B6800225A7503E07B680122CB
:102A50005A7503E0FB7B0133FB73A2E77B685B7D68
:102A6000002B10D07B681B8A9B109AB27B685A821D
:102A70007B681B8A03F00203002B14BF0123002391
:102A8000DAB27B681A757B685A8A7B689A807B68A1
:102A90009A697B689B885B0013441A887B68DA809C
:102AA0007B68DB8818461037BD4680BD80B483B094
:102AB00000AF78607B681B7A18460C37BD4680BC37
:102AC000704780B582B000AF786039607B681B6862
:102AD0001B687A68127911467868984703461A4647
:102AE0007B685A717B683A685A6100BF0837BD46F7
:102AF00080BD000080B500AF084B1B68074A43F05B
:102B000010031360032000F03DFA0F2000F008F8D6
:102B1000FEF7BAFB0023184680BD00BF002002402C
:102B200080B582B000AF7860124B1A68124B1B78E8
:102B300019464FF47A73B3FBF1F3B2FBF3F3184683
:102B400000F04BFA0346002B01D001230EE07B6816
:102B50000F2B0AD8002279684FF0FF3000F01DFAE1
:102B6000064A7B681360002300E0012318460837FB
:102B7000BD4680BD000000200800002004000020A9
:102B800080B400AF054B1B781A46054B1B681344F5
:102B9000034A136000BFBD4680BC70470800002098
:102BA000FC09002080B400AF024B1B681846BD46EC
:102BB00080BC7047FC09002080B584B000AF78600D
:102BC000FFF7F0FFB8607B68FB60FB68B3F1FF3F85
:102BD00005D00A4B1B781A46FB681344FB6000BF04
:102BE000FFF7E0FF0246BB68D31AFA689A42F7D8AB
:102BF00000BF00BF1037BD4680BD00BF08000020E9
:102C000080B584B000AF78607B68002B01D10123D0
:102C1000EDE07B6893F82030DBB2002B02D17868BE
:102C2000FEF764FB7B681B681A687B681B6842F0D0
:102C300001021A60FFF7B6FFF86012E0FFF7B2FF7B
:102C40000246FB68D31A0A2B0BD97B685B6A43F4F4
:102C500000327B685A627B68052283F820200123BA
:102C6000C5E07B681B685B6803F00103002BE5D0BF
:102C70007B681B681A687B681B6822F002021A6076
:102C8000FFF790FFF86012E0FFF78CFF0246FB6849
:102C9000D31A0A2B0BD97B685B6A43F400327B683A
:102CA0005A627B68052283F8202001239FE07B681D
:102CB0001B685B6803F00203002BE5D17B681B7E79
:102CC000012B08D17B681B681A687B681B6842F07F
:102CD00080021A6007E07B681B681A687B681B68C3
:102CE00022F080021A607B685B7E012B08D17B6832
:102CF0001B681A687B681B6842F040021A6007E094
:102D00007B681B681A687B681B6822F040021A60A7
:102D10007B689B7E012B08D17B681B681A687B68E7
:102D20001B6842F020021A6007E07B681B681A6883
:102D30007B681B6822F020021A607B68DB7E012B17
:102D400008D17B681B681A687B681B6822F0100238
:102D50001A6007E07B681B681A687B681B6842F092
:102D600010021A607B681B7F012B08D17B681B68EF
:102D70001A687B681B6842F008021A6007E07B68EB
:102D80001B681A687B681B6822F008021A607B685F
:102D90005B7F012B08D17B681B681A687B681B6806
:102DA00042F004021A6007E07B681B681A687B68BF
:102DB0001B6822F004021A607B689A687B68DB68F3
:102DC0001A437B681B691A437B685B6942EA03010B
:102DD0007B685B685A1E7B681B680A43DA617B6804
:102DE00000225A627B68012283F8202000231846C3
:102DF0001037BD4680BD000080B485B000AF78605C
:102E00007B6803F00703FB600C4BDB68BB60BA68B0
:102E10004FF6FF031340BB60FB681A02BB68134305
:102E200043F0BF6343F40033BB60044ABB68D36024
:102E300000BF1437BD4680BC704700BF00ED00E006
:102E400080B400AF044BDB681B0A03F0070318468D
:102E5000BD4680BC704700BF00ED00E080B483B089
:102E600000AF03463960FB7197F90730002B0ADB8E
:102E70003B68DAB20C4997F907301201D2B20B4421
:102E800083F800230AE03B68DAB20849FB7903F0D3
:102E90000F03043B1201D2B20B441A7600BF0C3769
:102EA000BD4680BC704700BF00E100E000ED00E0DF
:102EB00080B489B000AFF860B9607A60FB6803F055
:102EC0000703FB61FB69C3F10703042B28BF04233D
:102ED000BB61FB690433062B02D9FB69033B00E0AD
:102EE00000237B614FF0FF32BB6902FA03F3DA4340
:102EF000BB681A407B699A404FF0FF317B6901FA49
:102F000003F3D9437B680B40134318462437BD466F
:102F100080BC704780B400AFBFF34F8F00BF064B3B
:102F2000DB6803F4E0620449044B1343CB60BFF356
:102F30004F8F00BF00BFFDE700ED00E00400FA0581
:102F400080B582B000AF78607B68013BB3F1807FD1
:102F500001D301230FE00A4A7B68013B53600F2134
:102F60004FF0FF30FFF77AFF054B00229A60044BC9
:102F700007221A60002318460837BD4680BD00BFEF
:102F800010E000E080B582B000AF78607868FFF7AD
:102F900033FF00BF0837BD4680BD80B586B000AFA7
:102FA0000346B9607A60FB7300237B61FFF748FF3B
:102FB00078617A68B9687869FFF77AFF024697F90D
:102FC0000F3011461846FFF749FF00BF1837BD46BE
:102FD00080BD80B500AFFFF79DFF80B582B000AF28
:102FE00078607868FFF7ACFF034618460837BD469F
:102FF00080BD0000F0B587B000AFF860B960C7E9E8
:1030000000230123FB750023BB7500237B752F4B29
:103010001B7E012B01D1022354E02C4B01221A7696
:103020004CF2503000F0A8F80346FB75FB7D002BF6
:1030300044D1FB68012B02D101237B7507E0FB68BB
:10304000022B02D102237B7501E004237B75002350
:10305000BB752DE0BB7D5A00BB6802EB030CBB7D4A
:103060001901D7E90023C1F12006A1F1200022FABD
:1030700001F403FA06F6344323FA00F0044323FA7A
:1030800001F5A3B21946604600F05AF84CF25030F0
:1030900000F072F80346FB750D4B1B690C4A23F0D8
:1030A00001031361FB7D002B07D1BB7D0133BB7591
:1030B000BA7D7B7D9A42CDD300E000BF034B002256
:1030C0001A76FB7D18461C37BD46F0BD000A00206D
:1030D0000020024080B483B000AF0023FB710D4B91
:1030E0001B6903F08003002B0DD00A4B0A4A5A607B
:1030F000084B0A4A5A60074B1B6903F08003002BF8
:1031000001D00123FB71FB7918460C37BD4680BC0A
:10311000704700BF0020024023016745AB89EFCD17
:1031200080B400AF054B1B69044A43F08003136170
:1031300000231846BD4680BC704700BF00200240F7
:1031400080B483B000AF78600B467B80084B0022D0
:10315000DA61084B1B69074A43F0010313617B687E
:103160007A881A8000BF0C37BD4680BC704700BF0C
:10317000000A00200020024080B584B000AF7860D3
:10318000FFF710FDF86010E07B68B3F1FF3F0CD053
:103190007B68002B07D0FFF705FD0246FB68D31ABA
:1031A0007A689A4201D2032325E0154BDB6803F0CD
:1031B0000103002BE8D1124BDB6803F02003002B46
:1031C00002D00F4B2022DA600D4BDB6803F01003B6
:1031D000002B0BD10A4BDB6903F00103002B05D157
:1031E000074BDB6803F00403002B03D000F00AF860
:1031F000012300E0002318461037BD4680BD00BF04
:103200000020024080B483B000AF00237B60234BDA
:10321000DB6803F01003002B09D0214BDB6943F07E
:1032200002031F4AD3617B6843F010037B601B4B92
:10323000DB6803F00403002B09D0194BDB6943F072
:103240000103174AD3617B6843F004037B60134B8F
:10325000DB6903F00103002B0BD0114BDB6943F05A
:1032600004030F4AD3610D4BDB690C4A23F00103C1
:10327000D3617B6840F20112934206D1074BDB69B0
:10328000064A23F00103D36102E0044A7B68D3605D
:1032900000BF0C37BD4680BC704700BF0020024015
:1032A000000A002080B584B000AF78603960012347
:1032B000FB730023BB602F4B1B7E012B01D102232C
:1032C00053E02C4B01221A767B681B68022B16D127
:1032D0004CF25030FFF750FF0346002B41D1012044
:1032E00000F04CF84CF25030FFF746FF0346FB73FA
:1032F000214B1B69204A23F00403136131E04CF297
:103300005030FFF739FF0346002B2AD13B684FF0BE
:10331000FF321A607B689B68BB6019E0B86800F0F8
:1033200049F84CF25030FFF727FF0346FB73124B6E
:103330001B69114A23F002031361FB7B002B03D0AE
:103340003B68BA681A600CE0BB6803F58063BB6039
:103350007B68DB689A027B689B681344BA689A4270
:10336000DCD3044B00221A76FB7B18461037BD468F
:1033700080BD00BF000A00200020024080B483B05E
:1033800000AF7860094B0022DA61094B1B69084ADB
:1033900043F004031361064B1B69054A43F04003E5
:1033A000136100BF0C37BD4680BC7047000A002087
:1033B0000020024080B483B000AF78600B4B002245
:1033C000DA610B4B1B690A4A43F002031361084A96
:1033D0007B685361064B1B69054A43F04003136148
:1033E00000BF0C37BD4680BC704700BF000A0020FC
:1033F0000020024080B48BB000AF786039600023B9
:103400007B6200233B6269E101227B6A02FA03F3DB
:10341000FB613B681B68FA691340BB61BA69FB69D1
:103420009A4240F058813B685B689A4A93425ED06A
:10343000984A934275D8984A934258D0964A9342F4
:103440006FD8964A934252D0944A934269D8944A8C
:1034500093424CD0924A934263D8924A934246D0C8
:10346000904A93425DD8122B2AD8122B59D801A228
:1034700052F823F0EF340008C9340008DB340008A8
:103480001D350008233500082335000823350008C2
:1034900023350008233500082335000823350008AC
:1034A000233500082335000823350008233500089C
:1034B0002335000823350008D1340008E53400081E
:1034C000794A934213D02CE03B68DB683B6229E0E9
:1034D0003B68DB6804333B6224E03B68DB6808330D
:1034E0003B621FE03B68DB680C333B621AE03B68E1
:1034F0009B68002B02D104233B6213E03B689B686E
:10350000012B05D108233B627B68FA691A6109E047
:1035100008233B627B68FA695A6103E000233B623F
:1035200000E000BFBB69FF2B01D87B6801E07B682E
:1035300004337B61BB69FF2B02D87B6A9B0002E0EE
:103540007B6A083B9B003B617B691A680F213B69E2
:1035500001FA03F3DB431A40396A3B6901FA03F3CA
:103560001A437B691A603B685B6803F08053002B49
:1035700000F0B1804D4B9B694C4A43F001039361CD
:103580004A4B9B6903F00103BB60BB68484A7B6AF6
:103590009B08023352F82330FB607B6A03F003037D
:1035A0009B000F2202FA03F3DB43FA681340FB602F
:1035B0007B68404A934213D07B683F4A93420DD0C8
:1035C0007B683E4A934207D07B683D4A934201D1D3
:1035D000032306E0042304E0022302E0012300E0C9
:1035E00000237A6A02F0030292009340FA681343C0
:1035F000FB602F497B6A9B080233FA6841F823205D
:103600003B685B6803F48033002B06D02D4B1A68AF
:103610002C49BB6913430B6006E02A4B1A68BB694F
:10362000DB43284913400B603B685B6803F40033BD
:10363000002B06D0234B5A682249BB6913434B60C9
:1036400006E0204B5A68BB69DB431E4913404B60C0
:103650003B685B6803F48013002B06D0194B9A6813
:103660001849BB6913438B6006E0164B9A68BB6927
:10367000DB43144913408B603B685B6803F4001321
:10368000002B21D00F4BDA680E49BB691343CB6086
:1036900021E000BF000032100000311000002210B5
:1036A0000000211000001210000011100010024054
:1036B0000000014000080140000C014000100140E2
:1036C00000140140000401400B4BDA68BB69DB4386
:1036D00009491340CB607B6A01337B623B681A68FF
:1036E0007B6A22FA03F3002B7FF48EAE00BF00BF8B
:1036F0002C37BD4680BC70470004014080B485B0C3
:1037000000AF78600B467B807B689A687B881340AB
:10371000002B02D00123FB7301E00023FB73FB7B32
:1037200018461437BD4680BC704780B483B000AFE4
:1037300078600B467B8013467B707B78002B03D030
:103740007A887B681A6103E07B881A047B681A61B7
:1037500000BF0C37BD4680BC7047000080B586B006
:1037600000AF78607B68002B01D101236CE27B689D
:103770001B6803F00103002B00F08780924B5B680D
:1037800003F00C03042B0CD08F4B5B6803F00C038D
:10379000082B12D18C4B5B6803F48033B3F5803F68
:1037A0000BD1894B1B6803F40033002B6CD07B6872
:1037B0005B68002B68D1012346E27B685B68B3F548
:1037C000803F06D1804B1B687F4A43F480331360EF
:1037D0002EE07B685B68002B0CD17B4B1B687A4A20
:1037E00023F480331360784B1B68774A23F48023DB
:1037F00013601DE07B685B68B3F5A02F0CD1724BA2
:103800001B68714A43F4802313606F4B1B686E4A38
:1038100043F4803313600BE06B4B1B686A4A23F45C
:1038200080331360684B1B68674A23F4802313605E
:103830007B685B68002B13D0FFF7B4F9386108E0B0
:10384000FFF7B0F902463B69D31A642B01D9032371
:10385000FAE15D4B1B6803F40033002BF0D014E059
:10386000FFF7A0F9386108E0FFF79CF902463B69D1
:10387000D31A642B01D90323E6E1534B1B6803F4ED
:103880000033002BF0D100E000BF7B681B6803F021
:103890000203002B63D04C4B5B6803F00C03002B3E
:1038A0000BD0494B5B6803F00C03082B1CD1464B33
:1038B0005B6803F48033002B16D1434B1B6803F085
:1038C0000203002B05D07B681B69012B01D001236B
:1038D000BAE13D4B1B6823F0F8027B685B69DB00B3
:1038E000394913430B603AE07B681B69002B20D0F9
:1038F000364B01221A60FFF755F9386108E0FFF7EF
:1039000051F902463B69D31A022B01D903239BE1EB
:103910002D4B1B6803F00203002BF0D02A4B1B68D1
:1039200023F0F8027B685B69DB00274913430B60D7
:1039300015E0264B00221A60FFF734F9386108E0E1
:10394000FFF730F902463B69D31A022B01D9032352
:103950007AE11D4B1B6803F00203002BF0D17B685A
:103960001B6803F00803002B3AD07B689B69002B8F
:1039700019D0174B01221A60FFF714F9386108E0DB
:10398000FFF710F902463B69D31A022B01D9032332
:103990005AE10D4B5B6A03F00203002BF0D00120CB
:1039A00000F0D8FA1CE00A4B00221A60FFF7FAF880
:1039B00038610FE0FFF7F6F802463B69D31A022B95
:1039C00008D9032340E100BF00100240000042423A
:1039D000800442429E4B5B6A03F00203002BE9D154
:1039E0007B681B6803F00403002B00F0A680002313
:1039F000FB75974BDB6903F08053002B0DD1944B83
:103A0000DB69934A43F08053D361914BDB6903F048
:103A10008053BB60BB680123FB758E4B1B6803F4AE
:103A20008073002B18D18B4B1B688A4A43F4807338
:103A30001360FFF7B7F8386108E0FFF7B3F8024604
:103A40003B69D31A642B01D90323FDE0814B1B682A
:103A500003F48073002BF0D07B68DB68012B06D168
:103A60007B4B1B6A7A4A43F0010313622DE07B68AB
:103A7000DB68002B0CD1764B1B6A754A23F00103DF
:103A80001362734B1B6A724A23F0040313621CE037
:103A90007B68DB68052B0CD16D4B1B6A6C4A43F0CD
:103AA000040313626A4B1B6A694A43F00103136201
:103AB0000BE0674B1B6A664A23F001031362644BF9
:103AC0001B6A634A23F0040313627B68DB68002BE4
:103AD00015D0FFF767F838610AE0FFF763F8024690
:103AE0003B69D31A41F28832934201D90323ABE0F8
:103AF000574B1B6A03F00203002BEED014E0FFF7D4
:103B000051F838610AE0FFF74DF802463B69D31AD5
:103B100041F28832934201D9032395E04C4B1B6A52
:103B200003F00203002BEED1FB7D012B05D1484BA6
:103B3000DB69474A23F08053D3617B68DB69002B44
:103B400000F08180424B5B6803F00C03082B61D0CE
:103B50007B68DB69022B46D13F4B00221A60FFF7DE
:103B600021F8386108E0FFF71DF802463B69D31AD7
:103B7000022B01D9032367E0354B1B6803F0007368
:103B8000002BF0D17B681B6AB3F5803F08D1304B26
:103B90005B6823F400327B689B682D4913434B60BC
:103BA0002B4B5B6823F474127B68196A7B685B6A31
:103BB0000B43274913434B60274B01221A60FEF742
:103BC000F1FF386108E0FEF7EDFF02463B69D31ACA
:103BD000022B01D9032337E01D4B1B6803F0007350
:103BE000002BF0D02FE01C4B00221A60FEF7DAFF0A
:103BF000386108E0FEF7D6FF02463B69D31A022B74
:103C000001D9032320E0124B1B6803F00073002B43
:103C1000F0D118E07B68DB69012B01D1012313E0AF
:103C20000B4B5B68FB60FB6803F480327B681B6AAC
:103C30009A4206D1FB6803F470127B685B6A9A4271
:103C400001D0012300E0002318461837BD4680BD8F
:103C500000100240007000406000424280B584B015
:103C600000AF786039607B68002B01D10123D0E080
:103C70006A4B1B6803F007033A689A4210D9674BF6
:103C80001B6823F0070265493B6813430B60634BD5
:103C90001B6803F007033A689A4201D00123B8E099
:103CA0007B681B6803F00203002B20D07B681B6835
:103CB00003F00403002B05D0594B5B68584A43F4CA
:103CC000E06353607B681B6803F00803002B05D09A
:103CD000534B5B68524A43F460535360504B5B68EC
:103CE00023F0F0027B689B684D4913434B607B686F
:103CF0001B6803F00103002B40D07B685B68012B3D
:103D000007D1474B1B6803F40033002B15D1012367
:103D10007FE07B685B68022B07D1414B1B6803F097
:103D20000073002B09D1012373E03D4B1B6803F0A6
:103D30000203002B01D101236BE0394B5B6823F0B8
:103D400003027B685B68364913434B60FEF72AFF2A
:103D5000F8600AE0FEF726FF0246FB68D31A41F23C
:103D60008832934201D9032353E02D4B5B6803F063
:103D70000C027B685B689B009A42EBD1274B1B6867
:103D800003F007033A689A4210D2244B1B6823F0D1
:103D9000070222493B6813430B60204B1B6803F06A
:103DA00007033A689A4201D0012332E07B681B681E
:103DB00003F00403002B08D0194B5B6823F4E06286
:103DC0007B68DB68164913434B607B681B6803F014
:103DD0000803002B09D0124B5B6823F460527B6808
:103DE0001B69DB000E4913434B6000F021F80246CB
:103DF0000B4B5B681B0903F00F030A49CB5C22FAEB
:103E000003F3094A1360094B1B681846FEF788FE46
:103E1000002318461037BD4680BD00BF0020024079
:103E2000001002400892000800000020040000205A
:103E300090B48AB000AF2A4B3C1D0FCB84E80F0032
:103E400040F201233B800023FB610023BB61002380
:103E50007B6200237B6100233B62224B5B68FB613A
:103E6000FB6903F00C03042B02D0082B03D02DE0D8
:103E70001D4B3B622DE0FB699B0C03F00F0307F128
:103E80002802134413F8243C7B61FB6903F480335C
:103E9000002B13D0134B5B685B0C03F0010307F19D
:103EA0002802134413F8283CBB617B690E4A02FBCD
:103EB00003F2BB69B2FBF3F37B6204E07B690B4A5C
:103EC00002FB03F37B627B6A3B6202E0064B3B62D0
:103ED00000BF3B6A18462837BD4690BC704700BFFC
:103EE000F89100080010024000127A0000093D001D
:103EF00080B400AF024B1B681846BD4680BC7047BB
:103F00000000002080B500AFFFF7F2FF0246054B2E
:103F10005B681B0A03F007030349CB5C22FA03F337
:103F2000184680BD001002401892000880B500AF0E
:103F3000FFF7DEFF0246054B5B68DB0A03F0070371
:103F40000349CB5C22FA03F3184680BD00100240FF
:103F50001892000880B485B000AF78600A4B1B68E7
:103F60000A4AA2FB03235B0A7A6802FB03F3FB60A5
:103F700000BFFB685A1EFA60002BF9D100BF00BFDA
:103F80001437BD4680BC704700000020D34D62103E
:103F900080B582B000AF78607B68002B01D101232F
:103FA00076E07B685B6A002B08D17B685B68B3F5C1
:103FB000827F09D07B680022DA6105E07B680022FD
:103FC0001A617B6800225A617B6800229A627B68D2
:103FD00093F85130DBB2002B06D17B68002283F8C6
:103FE00050207868FDF7E2F97B68022283F85120BF
:103FF0007B681B681A687B681B6822F040021A60A5
:104000007B685B6803F482727B689B6803F40443FB
:104010001A437B68DB6803F400631A437B681B69FF
:1040200003F002031A437B685B6903F001031A4340
:104030007B689B6903F400731A437B68DB6903F0B8
:1040400038031A437B681B6A03F0800342EA0301CA
:104050007B689B6A03F400527B681B680A431A6002
:104060007B689B691A0C7B681B6802F004025A602B
:104070007B681B68DA697B681B6822F40062DA617E
:104080007B6800225A657B68012283F85120002357
:1040900018460837BD4680BD80B58CB000AFF860CB
:1040A000B9607A607B800123FB62002387F82B30A4
:1040B000FB6893F85030012B01D102238AE1FB68A1
:1040C000012283F85020FEF76DFD7862FB6893F8BB
:1040D000513087F82330FB685B68FB617B887B830A
:1040E00097F82330012B0FD0FB69B3F5827F07D1FE
:1040F000FB689B68002B03D197F82330042B03D077
:10410000022387F82B305BE1BB68002B05D07B686E
:10411000002B02D07B88002B03D1012387F82B30A2
:104120004EE1FB6893F85130DBB2042B03D0FB68FF
:10413000052283F85120FB6800225A65FB687A68E3
:104140009A63FB687A88DA87FB687A889A87FB68C3
:10415000BA681A63FB687A88DA86FB687A889A8676
:10416000FB6800221A64FB6800225A64FB681B6823
:104170001B6803F04003402B07D0FB681B681A68DC
:10418000FB681B6842F040021A60FB68DB68B3F50D
:10419000006F78D1FB685B68002B02D07B8B012B12
:1041A00066D1FB681B6B1A88FB681B68DA60FB68CA
:1041B0001B6B9A1CFB681A63FB68DB8E9BB2013B8E
:1041C0009AB2FB68DA8653E0FB681B689B6803F0D1
:1041D0000203022B1BD1FB68DB8E9BB2002B16D097
:1041E000FB6A012B13D1FB681B6B1A88FB681B68E9
:1041F000DA60FB681B6B9A1CFB681A63FB68DB8E3A
:104200009BB2013B9AB2FB68DA860023FB62FB6833
:104210001B689B6803F00103012B19D1FB68DB8F3E
:104220009BB2002B14D0FB681B68DA68FB689B6BA1
:1042300092B21A80FB689B6B9A1CFB689A63FB68BE
:10424000DB8F9BB2013B9AB2FB68DA870123FB62EA
:10425000FEF7A8FC02467B6AD31ABA6B9A4207D8CB
:10426000BB6BB3F1FF3F03D0032387F82B30A7E0EC
:10427000FB68DB8E9BB2002BA6D1FB68DB8F9BB269
:10428000002BA1D17CE0FB685B68002B02D07B8B0C
:10429000012B6BD1FB681A6BFB681B680C3312781F
:1042A0001A70FB681B6B5A1CFB681A63FB68DB8E79
:1042B0009BB2013B9AB2FB68DA8657E0FB681B6849
:1042C0009B6803F00203022B1CD1FB68DB8E9BB2C0
:1042D000002B17D0FB6A012B14D1FB681A6BFB680B
:1042E0001B680C3312781A70FB681B6B5A1CFB6836
:1042F0001A63FB68DB8E9BB2013B9AB2FB68DA86DD
:104300000023FB62FB681B689B6803F00103012B21
:1043100019D1FB68DB8F9BB2002B14D0FB681B68A4
:10432000DA68FB689B6BD2B21A70FB689B6B5A1CF5
:10433000FB689A63FB68DB8F9BB2013B9AB2FB6818
:10434000DA870123FB62FEF72DFC02467B6AD31A53
:10435000BA6B9A4203D8BB6BB3F1FF3F02D1BB6B80
:10436000002B03D1032387F82B3029E0FB68DB8E79
:104370009BB2002BA2D1FB68DB8F9BB2002B9DD19F
:104380007A6AB96BF86800F0B1F80346002B06D0E2
:10439000012387F82B30FB6820225A6510E0FB6868
:1043A0009B68002B0BD100237B61FB681B68DB68DB
:1043B0007B61FB681B689B687B617B6900E000BFD9
:1043C000FB68012283F85120FB68002283F850200B
:1043D00097F82B3018463037BD4680BD80B588B081
:1043E00000AFF860B9603B601346FB71FEF7DAFB83
:1043F0000246BB6A9B1A3A681344FB61FEF7D2FB84
:10440000B861394B1B685B011B0DFA6902FB03F3B2
:104410007B6154E03B68B3F1FF3F50D0FEF7C2FB35
:104420000246BB69D31AFA699A4202D9FB69002B8A
:104430003DD1FB681B685A68FB681B6822F0E002EC
:104440005A60FB685B68B3F5827F11D1FB689B689B
:10445000B3F5004F04D0FB689B68B3F5806F07D1BC
:10446000FB681B681A68FB681B6822F040021A6030
:10447000FB689B6AB3F5005F0FD1FB681B681A6885
:10448000FB681B6822F400521A60FB681B681A68FC
:10449000FB681B6842F400521A60FB68012283F833
:1044A0005120FB68002283F85020032317E07B692A
:1044B000002B01D10023FB617B69013B7B61FB6821
:1044C0001B689A68BB681340BA689A420CBF012304
:1044D0000023DBB21A46FB799A429BD1002318468F
:1044E0002037BD4680BD00BF0000002080B586B0EB
:1044F00002AFF860B9607A607B680093BB68002205
:104500008021F868FFF76AFF0346002B07D0FB689D
:104510005B6D43F02002FB685A65032300E0002333
:1045200018461037BD4680BD80B485B000AF7860B6
:104530007B6893F83D30DBB2012B01D001233AE0D8
:104540007B68022283F83D207B681B68DA687B6801
:104550001B6842F00102DA607B681B68184A9342CC
:104560000ED07B681B68B3F1804F09D07B681B6855
:10457000144A934204D07B681B68134A934211D1BA
:104580007B681B689B6803F00703FB60FB68062BD6
:1045900010D07B681B681A687B681B6842F00102B8
:1045A0001A6007E07B681B681A687B681B6842F02A
:1045B00001021A60002318461437BD4680BC7047BC
:1045C000002C0140000400400008004080B582B08B
:1045D00000AF78607B68002B01D1012341E07B684C
:1045E00093F83D30DBB2002B06D17B68002283F8C4
:1045F0003C207868FCF790FF7B68022283F83D201E
:104600007B681A687B6804331946104600F08EF9FF
:104610007B68012283F846207B68012283F83E20D4
:104620007B68012283F83F207B68012283F84020C9
:104630007B68012283F841207B68012283F84220B5
:104640007B68012283F843207B68012283F84420A1
:104650007B68012283F845207B68012283F83D2096
:10466000002318460837BD4680BD80B586B000AF30
:10467000786039607B68002B01D1012393E07B686F
:1046800093F83D30DBB2002B06D17B68002283F823
:104690003C207868FCF700FF7B68022283F83D200D
:1046A0007B681B689B687A68126823F4804323F058
:1046B000070393607B681A687B68043319461046C9
:1046C00000F034F97B681B689B687B617B681B6822
:1046D0009B693B617B681B681B6AFB603B681B68CE
:1046E0007A6913437B613B6923F4407323F003032E
:1046F0003B613B689A683B689B691B0213433A69BC
:1047000013433B613B6923F4406323F00C033B619B
:104710003B6923F4704323F0F0033B613B68DA68A4
:104720003B68DB691B0213433A6913433B613B68F7
:104730001B691A013B681B6A1B0313433A69134345
:104740003B61FB6823F02203FB603B685A683B68CF
:104750005B691B011343FA681343FB607B681B68AA
:104760007A699A607B681B683A699A617B681B6802
:10477000FA681A627B68012283F846207B6801226E
:1047800083F83E207B68012283F83F207B6801226A
:1047900083F842207B68012283F843207B68012252
:1047A00083F83D20002318461837BD4680BD000021
:1047B00080B584B000AFF860B9607A60FB6893F8A8
:1047C0003C30012B01D10223ACE0FB68012283F8CD
:1047D0003C207B680C2B00F29F8001A252F823F052
:1047E0001548000819490008194900081949000826
:1047F00055480008194900081949000819490008D6
:104800009748000819490008194900081949000883
:10481000D7480008FB681B68B968184600F0E8F83C
:10482000FB681B689A69FB681B6842F008029A6182
:10483000FB681B689A69FB681B6822F004029A6196
:10484000FB681B689969BB681A69FB681B680A43A7
:104850009A6162E0FB681B68B968184600F02EF99F
:10486000FB681B689A69FB681B6842F400629A61E6
:10487000FB681B689A69FB681B6822F480629A6176
:10488000FB681B689969BB681B691A02FB681B6897
:104890000A439A6141E0FB681B68B968184600F05A
:1048A00077F9FB681B68DA69FB681B6842F008024D
:1048B000DA61FB681B68DA69FB681B6822F0040296
:1048C000DA61FB681B68D969BB681A69FB681B68F9
:1048D0000A43DA6121E0FB681B68B968184600F0FA
:1048E000C1F9FB681B68DA69FB681B6842F4006267
:1048F000DA61FB681B68DA69FB681B6822F4806276
:10490000DA61FB681B68D969BB681B691A02FB681E
:104910001B680A43DA6100E000BFFB68002283F8ED
:104920003C20002318461037BD4680BD80B485B0BA
:1049300000AF786039607B681B68FB607B68294A40
:1049400093420BD07B68B3F1804F07D07B68264A37
:10495000934203D07B68254A934208D1FB6823F039
:104960007003FB603B685B68FA681343FB607B681D
:104970001C4A93420BD07B68B3F1804F07D07B6811
:10498000194A934203D07B68184A934208D1FB68C6
:1049900023F44073FB603B68DB68FA681343FB60F9
:1049A000FB6823F080023B685B691343FB607B6814
:1049B000FA681A603B689A687B68DA623B681A6832
:1049C0007B689A627B68074A934203D13B681A6905
:1049D0007B681A637B6801225A6100BF1437BD46A9
:1049E00080BC7047002C01400004004000080040DB
:1049F00080B487B000AF786039607B681B6A23F0B1
:104A000001027B681A627B681B6A7B617B685B685A
:104A10003B617B689B69FB60FB6823F07003FB6074
:104A2000FB6823F00303FB603B681B68FA681343D1
:104A3000FB607B6923F002037B613B689B687A69BA
:104A400013437B617B681C4A93420CD17B6923F042
:104A500008037B613B68DB687A6913437B617B6990
:104A600023F004037B617B68134A934211D13B69B5
:104A700023F480733B613B6923F400733B613B6823
:104A80005B693A6913433B613B689B693A6913432D
:104A90003B617B683A695A607B68FA689A613B6857
:104AA0005A687B685A637B687A691A6200BF1C3750
:104AB000BD4680BC704700BF002C014080B487B069
:104AC00000AF786039607B681B6A23F010027B6856
:104AD0001A627B681B6A7B617B685B683B617B68F1
:104AE0009B69FB60FB6823F4E043FB60FB6823F4F5
:104AF0004073FB603B681B681B02FA681343FB6052
:104B00007B6923F020037B613B689B681B017A690A
:104B100013437B617B681D4A93420DD17B6923F06F
:104B200080037B613B68DB681B017A6913437B610F
:104B30007B6923F040037B617B68144A934213D165
:104B40003B6923F480633B613B6923F400633B6171
:104B50003B685B699B003A6913433B613B689B6917
:104B60009B003A6913433B617B683A695A607B68F2
:104B7000FA689A613B685A687B689A637B687A69CD
:104B80001A6200BF1C37BD4680BC7047002C014034
:104B900080B487B000AF786039607B681B6A23F40B
:104BA00080727B681A627B681B6A7B617B685B68CA
:104BB0003B617B68DB69FB60FB6823F07003FB6093
:104BC000FB6823F00303FB603B681B68FA68134330
:104BD000FB607B6923F400737B613B689B681B026D
:104BE0007A6913437B617B681D4A93420DD17B69CF
:104BF00023F400637B613B68DB681B027A69134323
:104C00007B617B6923F480637B617B68144A9342F8
:104C100013D13B6923F480533B613B6923F4005378
:104C20003B613B685B691B013A6913433B613B682D
:104C30009B691B013A6913433B617B683A695A607F
:104C40007B68FA68DA613B685A687B68DA637B687C
:104C50007A691A6200BF1C37BD4680BC704700BF2E
:104C6000002C014080B487B000AF786039607B6869
:104C70001B6A23F480527B681A627B681B6A3B6163
:104C80007B685B687B617B68DB69FB60FB6823F4A6
:104C9000E043FB60FB6823F44073FB603B681B68E8
:104CA0001B02FA681343FB603B6923F400533B612A
:104CB0003B689B681B033A6913433B617B680F4A5F
:104CC000934209D17B6923F480437B613B685B6934
:104CD0009B017A6913437B617B687A695A607B68C0
:104CE000FA68DA613B685A687B681A647B683A69DB
:104CF0001A6200BF1C37BD4680BC7047002C0140C3
:104D000080B485B000AF786039607B6893F83C3040
:104D1000012B01D1022346E07B68012283F83C206D
:104D20007B68022283F83D207B681B685B68FB6020
:104D30007B681B689B68BB60FB6823F07003FB60AB
:104D40003B681B68FA681343FB607B681B68FA6862
:104D50005A607B681B68164A93420ED07B681B68BA
:104D6000B3F1804F09D07B681B68124A934204D08C
:104D70007B681B68104A93420CD1BB6823F0800308
:104D8000BB603B685B68BA681343BB607B681B68A9
:104D9000BA689A607B68012283F83D207B68002214
:104DA00083F83C20002318461437BD4680BC70476A
:104DB000002C0140000400400008004080B582B093
:104DC00000AF78607B68002B01D101233FE07B6856
:104DD00093F83D30DBB2002B06D17B68002283F8CC
:104DE0003C207868FCF702FC7B68242283F83D2095
:104DF0007B681B68DA687B681B6822F40052DA6003
:104E0000786800F029F87B681B681A697B681B6862
:104E100022F490421A617B681B685A697B681B68A0
:104E200022F02A025A617B681B68DA687B681B687B
:104E300042F40052DA607B6800221A647B68202208
:104E400083F83D207B68202283F83E20002318460B
:104E50000837BD4680BD000080B584B000AF7860E3
:104E60007B681B681B6923F440517B68DA687B68A8
:104E70001B680A431A617B689A687B681B691A433E
:104E80007B685B691343BB607B681B68DB6823F44A
:104E9000B05323F00C037A681268B9680B43D360EF
:104EA0007B681B685B6923F440717B689A697B6847
:104EB0001B680A435A617B681B682C4A934203D1E2
:104EC000FFF734F8F86002E0FFF71CF8F860FA68C2
:104ED00013469B0013449A001A447B685B689B004E
:104EE000B2FBF3F3224AA2FB03235B091901FA6820
:104EF00013469B0013449A001A447B685B689B002E
:104F0000B2FBF3F21A4BA3FB02035B09642000FB24
:104F100003F3D31A1B013233154AA2FB03235B09A7
:104F200003F0F0031944FA6813469B0013449A00F7
:104F30001A447B685B689B00B2FBF3F20C4BA3FB4B
:104F400002035B09642000FB03F3D31A1B01323315
:104F5000074AA2FB03235B0903F00F027B681B686F
:104F60000A449A6000BF1037BD4680BD003801403A
:104F70001F85EB5180B588B000AF7860FEF7AAF8C6
:104F80000023FB611EE00023FB607B681A68FB695D
:104F90009B0213447B610123BB6107F1080207F107
:104FA0000C0311461846FEF77DF94FF0FF30FEF76F
:104FB000E3F80A4B1B69094A23F002031361FB69FA
:104FC0000133FB617B689B68FA699A42DBD3FEF789
:104FD000A7F800BF2037BD4680BD00BF00200240BB
:104FE00080B582B000AF7860FEF774F87B681A680D
:104FF0007B68DA6000BF0837BD4680BD80B582B0EF
:1050000000AF7860FEF78CF800BF0837BD4680BD62
:1050100080B586B000AFF860B9607A60FB68DA6886
:10502000FB681B689A422BD3FB68DA687B685B00DD
:105030001A44FB681968FB685B680B449A4221D8E4
:1050400000237B6117E0FB68D9687B695B00BA6865
:1050500013441B889AB24FF000030120FDF7CAFFEA
:105060000346002B04D1FB68DB689A1CFB68DA60FE
:105070007B6901337B617A697B689A42E3D302E002
:1050800000BF00E000BF1837BD4680BD80B582B0CC
:1050900000AF78600B46FB70FB78012B02D0022B2F
:1050A0000CD016E04FF480510C48FEF727FB034666
:1050B000012B0CBF01230023DBB20BE004210748C6
:1050C000FEF71CFB0346012B0CBF01230023DBB2C0
:1050D00000E0002318460837BD4680BD000C0140A3
:1050E00080B582B000AF78600348FFF779FF00BF5A
:1050F0000837BD4680BD00BF0C00002080B582B0DF
:1051000000AF78600348FFF779FF00BF0837BD465E
:1051100080BD00BF0C00002080B582B000AF786079
:105120000348FFF727FF00BF0837BD4680BD00BF1B
:105130000C00002080B582B000AF78600B467B8009
:10514000BB1C012219460348FFF762FF00BF083766
:10515000BD4680BD0C00002080B582B000AF7860F5
:10516000FCF75CF800BF0837BD4680BD80B586B04F
:1051700002AF78600B467B800B4B4FF400425A61C4
:1051800007F10E02B91C4FF0FF33009301230748CB
:10519000FEF782FF044B4FF400421A61FB89184668
:1051A0001037BD4680BD00BF000801404408002004
:1051B00080B588B000AF786007F1100300221A6054
:1051C0005A609A60DA601A4B9B69194A43F00403EB
:1051D0009361174B9B6903F00403FB60FB68144B5E
:1051E0009B69134A43F008039361114B9B6903F0D9
:1051F0000803BB60BB6800223C210E48FEF795FA0D
:1052000000224FF440610C48FEF78FFA3C233B61CB
:1052100001237B610023BB610223FB6107F11003C3
:1052200019460448FEF7E6F800BF2037BD4680BDAA
:105230000010024000080140000C014080B582B01F
:1052400000AF7860FCF71AFB00BF0837BD4680BD91
:1052500080B483B000AF78600B467B8013463B8000
:105260007B889A10064B1B689A633B889A10044B04
:105270001B685A6300BF0C37BD4680BC704700BF37
:10528000E408002080B483B000AF78600B46FB7068
:105290001346BB70FB78002B03D00B4B20221A6106
:1052A00002E0094B20225A61BB78002B03D0064B49
:1052B00010221A6102E0044B10225A6100BF0C3721
:1052C000BD4680BC704700BF0008014080B483B079
:1052D00000AF78600B46FB701346BB70FB78002B69
:1052E00003D00B4B08221A6102E0094B08225A61D5
:1052F000BB78002B03D0064B04221A6102E0044B5A
:1053000004225A6100BF0C37BD4680BC704700BF05
:105310000008014080B483B000AF786039607B68DA
:1053200000221A607B683A685A607B6800229A60A3
:105330007B680022DA607B6800221A617B6818466D
:105340000C37BD4680BC704780B483B000AF786036
:1053500039607B6800221A607B683A685A607B6813
:1053600000229A607B680022DA607B6800221A6162
:105370007B6818460C37BD4680BC704780B483B04C
:1053800000AF786039607B6800221A607B68002279
:105390005A607B683A689A607B680022DA607B68B2
:1053A00000221A617B684FF000025A617B6800227C
:1053B0009A617B680022DA617B6800221A627B684E
:1053C00000225A627B6800229A627B6818460C377A
:1053D000BD4680BC704780B483B000AF7860396050
:1053E0007B6800221A607B6800225A607B683A68FA
:1053F0009A607B680022DA607B6800221A617B6811
:1054000000225A617B6800229A617B680022DA617F
:105410007B6818460C37BD4680BC704780B483B0AB
:1054200000AF786039607B6800221A607B680022D8
:105430005A607B683A689A607B680022DA607B6811
:1054400000221A617B6800225A617B68C8229A6137
:105450007B6800221A777B6800221A627B68002230
:105460005A627B6800229A627B680022DA627B685B
:1054700000221A637B6800225A637B6818460C3747
:10548000BD4680BC704780B582B000AF78607B6855
:105490001A460023136053609360D3601361536115
:1054A0007B68183364220021184600F0D9FB7B6822
:1054B00018460837BD4680BD80B582B000AF786021
:1054C0007B6844F620621A607B681B68154A92FB71
:1054D000F3F27B685A607B68083379681846FFF7F7
:1054E00019FF7B681C3379681846FFF72DFF7B682E
:1054F000303379681846FFF741FF7B685C33796881
:105500001846FFF768FF7B687C3379681846FFF719
:1055100085FF7B680022C3F8B4207B6818460837F3
:10552000BD4680BD40420F0080B582B000AF7860BC
:105530007B68C8221A607B684FF480725A607B686F
:105540001B687A68526802FB03F27B689A607B688A
:105550000C331846FFF797FF7B6888331846FFF730
:10556000ABFF7B6803F5A6727B68C3F840217B68BC
:105570000022C3F844217B680022C3F848217B68DD
:1055800003F5A6737968184600F05CF87B68002282
:10559000DA607B684FF4FA621A617B684FF47A72C2
:1055A0005A617B684FF4FA621A627B689A68134604
:1055B0001B019B1A5B001A467B689A617B689B689B
:1055C0004FF47A7202FB03F27B68DA617B68002297
:1055D00083F884207B68243330220021184600F0B1
:1055E0003FFB7B6805229A627B681E22DA627B6839
:1055F000543330220021184600F032FB7B68C82269
:105600005A657B6850229A657B684FF49672DA651A
:105610007B68FA221A667B6803F188027B680C3388
:1056200019461046FCF717FC7B68D3F840217B68CD
:10563000243319461046FCF767FD7B681846083787
:10564000BD4680BD80B483B000AF786039607B68B0
:1056500000221A607B6800229A717B680022DA714E
:105660007B680022DA607B6800221A617B68002276
:105670005A617B6800229A617B680022DA617B684C
:1056800000221A627B6800225A627B6800229A62BA
:105690007B680022DA627B6800221A637B68002242
:1056A0005A637B6800229A637B680022DA637B6816
:1056B000002283F840207B68002283F841207B6829
:1056C00000225A647B6800229A647B680022DA64B4
:1056D0007B68002283F850207B68002283F85120E9
:1056E0007B68002283F852207B6800225A657B6821
:1056F00000229A657B680022DA657B68002283F8C5
:1057000060207B683A689A607B6800221A717B6827
:1057100000225A717B6818460C37BD4680BC704722
:1057200080B483B000AF7860084A7B681A607B68F9
:10573000043300221A609A807B684FF48042DA605A
:105740007B6818460C37BD4680BC7047289B000814
:1057500080B582B000AF786039607B681846FFF78B
:10576000DFFF084A7B681A607B68103300221A60EA
:105770009A807B683A689A617B6818460837BD460C
:1057800080BD00BF5C9A000880B582B000AF786031
:105790007B6806491846FFF7DBFF054A7B681A60FD
:1057A0007B6818460837BD4680BD00BF007C0108F5
:1057B0009C9A000880B483B000AF7860094A7B6887
:1057C0001A607B68043300221A609A807B680A336F
:1057D00000221A609A807B6818460C37BD4680BC50
:1057E000704700BF0C9B000880B582B000AF7860A6
:1057F0007B681846FFF7DEFF034A7B681A607B6808
:1058000018460837BD4680BD2C9A000880B582B086
:1058100000AF78607B681A46002313605360936082
:10582000D3607B681846FFF7DFFF044A7B681A6085
:105830007B6818460837BD4680BD00BFB89A00088F
:1058400080B582B000AF786039601F4A7B681A600B
:105850007B680022DA827B681833202200211846F8
:1058600000F0FEF97B6838334FF4C9720021184606
:1058700000F0F6F97B6803F5E5734FF4C972002177
:10588000184600F0EDF97B683A689A607B68002260
:105890001A717B6800221A737B6800225A737B6836
:1058A00000221A617B680022C3F85C237B68002217
:1058B000C3F860237B680022C3F864237B68184622
:1058C0000837BD4680BD00BFF49A000880B582B09D
:1058D00000AF786039607B6839681846FFF7B0FF21
:1058E000034A7B681A607B6818460837BD4680BD4E
:1058F000849A000880B485B000AFF8600B467A60E7
:10590000FB720D4AFB681A60FB68FA7A1A71FB6831
:1059100000225A71FB6800229A60FB680022DA605C
:10592000FB687A681A61FB6800225A61FB681846B6
:105930001437BD4680BC7047E89A000880B584B033
:1059400000AFF8600B467A60FB72FB68F97A7A6800
:105950001846FFF7CFFF044AFB681A60FB68184639
:105960001037BD4680BD00BF789A000880B500AFF3
:1059700023492448FCF7A4FA23492248FCF792FA69
:10598000204BD3F840311846FCF70AFB1D4BD3F8E7
:1059900048211C4BD3F848311B681B6810469847B8
:1059A000184BD3F84421174BD3F844311B681B68BC
:1059B0001046984715491648FDF783F815491648CB
:1059C000FDF77FF86420FDF7F7F81448FEF7ACFD0B
:1059D0001348FEF7A9FD134B01221A711148FCF779
:1059E000F3FC114B1B78022B03D10F4B01221A70D1
:1059F000F4E70D4B1B78002BF0D1FDF7EAFAEDE749
:105A0000FC0300204C0200200C0400202D5A00084A
:105A10009C070020A55A0008B4070020E4080020D5
:105A20009C080020340400201802002080B582B0B9
:105A300000AF0346FB71FB79032B2AD801A252F871
:105A400023F000BF915A0008915A0008555A0008E7
:105A50005B5A0008FDF7BDFA1BE0104BD3F840314C
:105A60005B79002B0CD00D4BD3F840315B791A4693
:105A70000B4BDA60094BD3F8403100221A7108E071
:105A8000074BDA68054BD3F84031D2B21A7100E007
:105A900000BF00BF0837BD4680BD00BF4C020020DC
:105AA0001802002080B582B000AF0346FB71FB797D
:105AB000032B4BD801A252F823F000BF475B00082C
:105AC000475B0008CD5A0008395B0008214BD3F82A
:105AD00040315B79082B38D801A252F823F000BF7F
