:020000040800F2
:1000000000500020F50B0008050B00080B0B000842
:10001000110B0008170B00081D0B00080000000062
:10002000000000000000000000000000230B00089A
:100030002F0B0008000000003B0B0008470B0008D6
:100040003D0C00083D0C00083D0C00083D0C00086C
:100050003D0C00083D0C00083D0C00083D0C00085C
:100060003D0C00083D0C00083D0C00083D0C00084C
:100070003D0C00083D0C00083D0C00083D0C00083C
:100080003D0C00083D0C00083D0C00083D0C00082C
:100090003D0C00083D0C00083D0C00083D0C00081C
:1000A0003D0C00083D0C00083D0C00083D0C00080C
:1000B0003D0C00083D0C00083D0C00083D0C0008FC
:1000C0003D0C00083D0C00083D0C00083D0C0008EC
:1000D0003D0C00083D0C00083D0C00083D0C0008DC
:1000E0003D0C00083D0C00083D0C0008000000001D
:1000F0000000000000000000000000000000000000
:0C01000000000000000000005FF808F1A3
:10010C0010B5054C237833B9044B13B10448AFF345
:10011C0000800123237010BD74000020000000003B
:10012C006031000808B5034B1BB103490348AFF31A
:10013C00008008BD0000000078000020603100083D
:10014C0080F0004002E000BF81F0004142001FBF80
:10015C005FEA410392EA030F7FEA226C7FEA236C89
:10016C006AD04FEA1262D2EB1363C1BFD21841407E
:10017C0048404140B8BF5B42192B88BF704710F014
:10018C00004F40F4000020F07F4018BF404211F0B7
:10019C00004F41F4000121F07F4118BF494292EA1F
:1001AC00030F3FD0A2F1010241FA03FC10EB0C004B
:1001BC00C3F1200301FA03F100F0004302D54942D8
:1001CC0060EB4000B0F5000F13D3B0F1807F06D385
:1001DC0040084FEA310102F10102FE2A51D2B1F17D
:1001EC00004F40EBC25008BF20F0010040EA030072
:1001FC007047490040EB0000013A28BFB0F5000FF2
:10020C00EDD2B0FA80FCACF1080CB2EB0C0200FAA7
:10021C000CF0AABF00EBC25052421843BCBFD040F6
:10022C001843704792F0000F81F4000106BF80F470
:10023C0000000132013BB5E74FEA41037FEA226C33
:10024C0018BF7FEA236C21D092EA030F04D092F0FE
:10025C00000F08BF0846704790EA010F1CBF002032
:10026C00704712F07F4F04D1400028BF40F000408F
:10027C00704712F100723CBF00F50000704700F0AF
:10028C00004343F0FE4040F4000070477FEA2262D6
:10029C0016BF08467FEA23630146420206BF5FEAA7
:1002AC00412390EA010F40F4800070474FF00003A7
:1002BC0004E000BF10F0004348BF40425FEA000C6E
:1002CC0008BF704743F0964301464FF000001CE016
:1002DC0050EA010208BF70474FF000030AE000BF6C
:1002EC0050EA010208BF704711F0004302D54042AA
:1002FC0061EB41015FEA010C02BF8446014600201C
:10030C0043F0B64308BFA3F18053A3F50003BCFA36
:10031C008CF2083AA3EBC25310DB01FA02FC6344E3
:10032C0000FA02FCC2F12002BCF1004F20FA02F2EA
:10033C0043EB020008BF20F00100704702F12002DD
:10034C0001FA02FCC2F1200250EA4C0021FA02F23E
:10035C0043EB020008BF20EADC7070474FF0FF0C43
:10036C001CEAD0521EBF1CEAD15392EA0C0F93EA3E
:10037C000C0F6FD01A4480EA010C400218BF5FEAE0
:10038C0041211ED04FF0006343EA501043EA511153
:10039C00A0FB01310CF00040B1F5000F3EBF49004D
:1003AC0041EAD3715B0040EA010062F17F02FD2A51
:1003BC001DD8B3F1004F40EBC25008BF20F0010034
:1003CC00704790F0000F0CF0004C08BF49024CEA4B
:1003DC00502040EA51207F3AC2BFD2F1FF0340EADD
:1003EC00C250704740F400004FF00003013A5DDC4E
:1003FC0012F1190FDCBF00F000407047C2F100028F
:10040C00410021FA02F1C2F1200200FA02FC5FEA7B
:10041C00310040F1000053EA4C0308BF20EADC70C5
:10042C00704792F0000F00F0004C02BF400010F437
:10043C00000F013AF9D040EA0C0093F0000F01F0E4
:10044C00004C02BF490011F4000F013BF9D041EA06
:10045C000C018FE70CEAD15392EA0C0F18BF93EA08
:10046C000C0F0AD030F0004C18BF31F0004CD8D132
:10047C0080EA010000F00040704790F0000F17BFB9
:10048C0090F0004F084691F0000F91F0004F14D0FF
:10049C0092EA0C0F01D142020FD193EA0C0F03D157
:1004AC004B0218BF084608D180EA010000F000405A
:1004BC0040F0FE4040F40000704740F0FE4040F435
:1004CC00400070474FF0FF0C1CEAD0521EBF1CEAD4
:1004DC00D15392EA0C0F93EA0C0F69D0A2EB0302F2
:1004EC0080EA010C49024FEA402037D04FF080538C
:1004FC0043EA111143EA10130CF000408B4238BF51
:10050C005B0042F17D024FF4000C8B4224BF5B1A5E
:10051C0040EA0C00B3EB510F24BFA3EB510340EAAC
:10052C005C00B3EB910F24BFA3EB910340EA9C005A
:10053C00B3EBD10F24BFA3EBD10340EADC001B01CA
:10054C0018BF5FEA1C1CE0D1FD2A3FF650AF8B426E
:10055C0040EBC25008BF20F0010070470CF0004C7B
:10056C004CEA50207F32C2BFD2F1FF0340EAC250A6
:10057C00704740F400004FF00003013A37E792F067
:10058C00000F00F0004C02BF400010F4000F013AC5
:10059C00F9D040EA0C0093F0000F01F0004C02BFC0
:1005AC00490011F4000F013BF9D041EA0C0195E729
:1005BC000CEAD15392EA0C0F08D142027FF47DAFC2
:1005CC0093EA0C0F7FF470AF084676E793EA0C0FB2
:1005DC0004D14B023FF44CAF08466EE730F0004CB0
:1005EC0018BF31F0004CCAD130F000427FF45CAF40
:1005FC0031F000437FF43CAF5FE700BF80B500AF44
:10060C00164B174A1A60154B10225A60134B0022D6
:10061C009A60124B0022DA60104B00221A610F4BC9
:10062C0000225A610D4B00221A760C4B00225A768E
:10063C000A4B00229A76094B0022DA76074B0022ED
:10064C001A77064B00225A77044800F025FE034621
:10065C00002B01D000F0B2F800BF80BD7802002062
:10066C000064004080B586B000AF07F1080300229B
:10067C001A605A609A60DA60284B9B69274A43F0EB
:10068C0004039361254B9B6903F004037B607B6837
:10069C00224B9B69214A43F0080393611F4B9B69D2
:1006AC0003F008033B603B6800223C211C4801F02E
:1006BC0057F900224FF440611A4801F051F93C23DC
:1006CC00BB600123FB6000233B6102237B6107F1CC
:1006DC0008031946124800F0BFFF41F20403BB6047
:1006EC000023FB6000233B6107F1080319460D480A
:1006FC0000F0B2FF4FF44063BB600123FB600023AA
:10070C003B6102237B6107F108031946054800F0A1
:10071C00A3FF00BF1837BD4680BD00BF00100240CC
:10072C0000080140000C014080B500AF00F052FD04
:10073C0000F009F8FFF796FFFFF760FF00F044F8B0
:10074C0000F028FAFEE780B590B000AF07F118036F
:10075C0028220021184602F0B1FC3B1D00221A6031
:10076C005A609A60DA601A610223BB610123BB6292
:10077C001023FB6200237B6307F11803184601F07A
:10078C0007F90346002B01D000F018F80F237B600B
:10079C000023BB600023FB6000233B6100237B61D3
:1007AC003B1D0021184601F073FB0346002B01D0C2
:1007BC0000F004F800BF4037BD4680BD80B400AFE8
:1007CC0072B600BFFEE7000080B500AF174B184AA9
:1007DC001A60164B4FF482725A60144B00229A60C6
:1007EC00124B0022DA60114B00221A610F4B0022CF
:1007FC005A610E4B4FF400729A610C4B0022DA6175
:10080C000A4B00221A62094B00225A62074B002243
:10081C009A62064B0A22DA62044801F0D3FC0346C2
:10082C00002B01D0FFF7CAFF00BF80BDE8020020FB
:10083C000030014080B485B000AF154B9B69144A61
:10084C0043F001039361124B9B6903F00103BB60FE
:10085C00BB680F4BDB690E4A43F08053D3610C4BE2
:10086C00DB6903F080537B607B680A4B5B68FB6041
:10087C00FB6823F0E063FB60FB6843F00073FB60F4
:10088C00044AFB68536000BF1437BD4680BC7047F8
:10089C00001002400000014080B58AB000AF7860C3
:1008AC0007F1140300221A605A609A60DA607B68C0
:1008BC001B68254A934243D1244BDB69234A43F0FE
:1008CC000073D361214BDB6903F000733B613B691F
:1008DC001E4B9B691D4A43F0080393611B4B9B699C
:1008EC0003F00803FB60FB684FF480737B6100230B
:1008FC00BB610023FB6107F114031946144800F097
:10090C00ABFE4FF400737B610223BB6103233B629C
:10091C0007F1140319460E4800F09EFE0D4B5B6860
:10092C007B627B6A23F4C0437B627B6A43F0E063A7
:10093C007B627B6A43F480437B62064A7B6A53602A
:10094C0000BF2837BD4680BD006400400010024047
:10095C00000C01400000014080B58AB000AF786007
:10096C0007F1140300221A605A609A60DA607B68FF
:10097C001B682F4A934256D12E4B9B692D4A43F448
:10098C00805393612B4B9B6903F480533B613B6910
:10099C00284B9B69274A43F004039361254B9B69C1
:1009AC0003F00403FB60FB68224B9B69214A43F074
:1009BC00080393611F4B9B6903F00803BB60BB6882
:1009CC004FF400437B610223BB6103233B6207F1BD
:1009DC0014031946184800F03FFE28237B610223BC
:1009EC00BB6103233B6207F114031946134800F063
:1009FC0033FE10237B610023BB610023FB6107F1F5
:100A0C00140319460D4800F027FE0D4B5B687B6202
:100A1C007B6A43F0E0637B627B6A43F001037B6299
:100A2C00074A7B6A536000BF2837BD4680BD00BFB4
:100A3C00003001400010024000080140000C014051
:100A4C000000014080B58AB000AF786007F1140354
:100A5C0000221A605A609A60DA607B681B68224A2E
:100A6C0093423DD1214B9B69204A43F480439361CF
:100A7C001E4B9B6903F480433B613B691B4B9B6999
:100A8C001A4A43F008039361184B9B6903F008035F
:100A9C00FB60FB6840237B610223BB6103233B6249
:100AAC0007F114031946124800F0D6FD80237B6130
:100ABC000023BB610023FB6107F1140319460C48AA
:100ACC0000F0CAFD0B4B5B687B627B6A43F0E06312
:100ADC007B627B6A43F004037B62064A7B6A536049
:100AEC0000BF2837BD4680BD0038014000100240D1
:100AFC00000C01400000014080B400AFFEE780B460
:100B0C0000AFFEE780B400AFFEE780B400AFFEE7B5
:100B1C0080B400AFFEE780B400AF00BFBD4680BC20
:100B2C00704780B400AF00BFBD4680BC704780B436
:100B3C0000AF00BFBD4680BC704780B500AF00F071
:100B4C008FFB00BF80BD80B400AF01231846BD46AB
:100B5C0080BC704780B582B000AF7860396002F01D
:100B6C0083FA034616221A604FF0FF3318460837F3
:100B7C00BD4680BD80B582B000AF78604FF0FF31CC
:100B8C007868FFF7E7FFFEE780B400AF00BFBD4613
:100B9C0080BC704780B500AF114B124A1A60104BE5
:100BAC004FF4E1325A600E4B00229A600C4B00223B
:100BBC00DA600B4B00221A61094B0C225A61084B6C
:100BCC0000229A61064B0022DA61054801F0C6FD4D
:100BDC000346002B01D0FFF7F1FD00BF80BD00BF25
:100BEC00CC030020003801400C480D490D4A00236D
:100BFC0002E0D458C4500433C4188C42F9D30A4AC6
:100C0C000A4C002301E013600432A242FBD3FFF72D
:100C1C00BBFF02F02FFAFFF787FD704700000020A2
:100C2C0074000020D83A000874000020180400203A
:100C3C00FEE780B582B000AF78607B681B68143328
:100C4C001B68786898477B681B6818331B68786842
:100C5C00984700BF0837BD4680BD000080B586B000
:100C6C0000AFF860B9607A60BB689BB2C3F309034C
:100C7C009AB2FB689A80FB689B8803F580739BB2E1
:100C8C00C3F309039AB2FB685A81FB685B891A4665
:100C9C00484B33F91220FB689A81FB689B881A46F3
:100CAC00444B33F91220FB68DA807B68002BB8BF09
:100CBC005B427B617B6941F2DB3202FB03F31B0B72
:100CCC007B617B69C3F30B037B61FB68B3F90C306D
:100CDC00002BB8BF5B429BB21A467B6903FB02F345
:100CEC001B0B9AB2FB68DA81FB68B3F90630002B58
:100CFC00B8BF5B429BB21A467B6903FB02F31B0B2A
:100D0C009AB2FB681A81FB681B6810331B68FA687F
:100D1C00D189FA681289F8689847FB68B3F90C30E6
:100D2C00002B08DDFB681B6820331B6800220121A7
:100D3C00F868984715E0FB68B3F90C30002B08DA1B
:100D4C00FB681B6820331B6801220021F868984758
:100D5C0007E0FB681B6820331B6801220121F8683F
:100D6C009847FB68B3F90630002B08DDFB681B685D
:100D7C0024331B6800220121F868984715E0FB68B2
:100D8C00B3F90630002B08DAFB681B6824331B68A8
:100D9C0001220021F868984707E0FB681B682433A0
:100DAC001B6801220121F868984700BF1837BD461F
:100DBC0080BD00BFA031000880B582B000AF786064
:100DCC000B467B8013463B807B681B681C331B687F
:100DDC003A8879887868984700BF0837BD4680BD47
:100DEC0080B582B000AF78607B680022DA817B68C6
:100DFC0000221A817B681B6810331B687A68D189C2
:100E0C007A681289786898477B681B6820331B685E
:100E1C0000220021786898477B681B6824331B6884
:100E2C00002200217868984700BF0837BD4680BD76
:100E3C0080B582B000AF78607B680022DA817B6875
:100E4C0000221A817B681B6810331B687A68D18971
:100E5C007A681289786898477B681B6820331B680E
:100E6C0001220121786898477B681B6824331B6832
:100E7C00012201217868984700BF0837BD4680BD24
:100E8C0080B582B000AF78607B685B68D3F8B43013
:100E9C005B691946786800F004F800BF0837BD4656
:100EAC0080BD80B483B000AF786039607B683A68ED
:100EBC009A6000BF0C37BD4680BC704780B582B0CD
:100ECC0000AF78607B685B68D3F8B4301B69194657
:100EDC00786800F004F800BF0837BD4680BD80B4C8
:100EEC0083B000AF786039607B683A689A6000BF65
:100EFC000C37BD4680BC704780B582B000AF7860BF
:100F0C007B689B68D3F8B4301B691946786800F08D
:100F1C0013F87B689B68D3F8B4301B69054A82FBD5
:100F2C0003129211DB17D21A7B689A6100BF083743
:100F3C00BD4680BDD34D621080B582B000AF7860E5
:100F4C0039607B683A68DA607B683A681A617B685A
:100F5C001B691846FFF7AEF9034619464FF07C5053
:100F6C00FFF7B0FA03461A467B685A6100BF083790
:100F7C00BD4680BD80B483B000AF786000BF0C3735
:100F8C00BD4680BC704780B483B000AF78603960D8
:100F9C007B683A68DA6000BF0C37BD4680BC70478E
:100FAC0080B582B000AF786039607B689B68D3F8FD
:100FBC00B4301B6919467868FFF7E5FF7B683A681F
:100FCC009A6100BF0837BD4680BD80B582B000AFC6
:100FDC00786039607B683A68C3F8B4207B68083362
:100FEC001846FFF74DFF7B681C331846FFF766FF6A
:100FFC007B6830331846FFF77FFF7B685C331846FD
:10100C00FFF7B8FF7B687C33C8211846FFF7C8FF91
:10101C0000BF0837BD4680BD80B483B000AF786098
:10102C0039607B683A681A6000BF0C37BD4680BCDB
:10103C00704780B584B000AF78607B681B680C3358
:10104C001B68786898477B681B6804331B68786852
:10105C0098477B6801221A720023FB607B68DB686F
:10106C001A46FB68934210D27B689A69FB685B0056
:10107C0013441B884FF6FF72934202D17B68002207
:10108C001A72FB680133FB60E8E77B681B7A184631
:10109C001037BD4680BD80B584B000AF78607B68EA
:1010AC004FF403429A837B684FF40442DA830023A3
:1010BC00FB73FB7B022B59D87B681B6810331B68B6
:1010CC007A68928B11467868984703461A467B6873
:1010DC001A847B681B6810331B687A68D28B1146A4
:1010EC007868984703461A467B685A847B681B8C41
:1010FC001B021AB27B685B8C1BB2DBB21BB21343B4
:10110C001BB29AB27B681A827B68002283F8242077
:10111C000023BB73BB7B0F2B15D87B681B8A1A462D
:10112C00BB7B42FA03F303F00103002B07D07B686F
:10113C0093F824300133DAB27B6883F82420BB7B2C
:10114C000133BB73E6E77B6893F8243003F00103AB
:10115C00002B03D07B6800225A7503E07B680122C8
:10116C005A7503E0FB7B0133FB73A2E77B685B7D65
:10117C00002B10D07B681B8A9B109AB27B685A821A
:10118C007B681B8A03F00203002B14BF012300238E
:10119C00DAB27B681A757B685A8A7B689A807B689E
:1011AC009A697B689B885B0013441A887B68DA8099
:1011BC007B68DB8818461037BD4680BD80B483B091
:1011CC0000AF78607B681B7A18460C37BD4680BC34
:1011DC007047000080B500AF084B1B68074A43F00E
:1011EC0010031360032000F003FA0F2000F008F83E
:1011FC00FFF720FB0023184680BD00BF00200240F3
:10120C0080B582B000AF7860124B1A68124B1B7815
:10121C0019464FF47A73B3FBF1F3B2FBF3F31846B0
:10122C0000F00DFA0346002B01D001230EE07B6881
:10123C000F2B0AD8002279684FF0FF3000F0E3F949
:10124C00064A7B681360002300E001231846083728
:10125C00BD4680BD000000200800002004000020D6
:10126C0080B400AF054B1B781A46054B1B68134422
:10127C00034A136000BFBD4680BC704708000020C5
:10128C001004002080B400AF024B1B681846BD460A
:10129C0080BC70471004002080B584B000AF78602B
:1012AC007B68002B01D10123EDE07B6893F82030A3
:1012BC00DBB2002B02D17868FFF7EEFA7B681B6873
:1012CC001A687B681B6842F001021A60FFF7DAFFAC
:1012DC00F86012E0FFF7D6FF0246FB68D31A0A2B20
:1012EC000BD97B685B6A43F400327B685A627B687B
:1012FC00052283F820200123C5E07B681B685B680E
:10130C0003F00103002BE5D07B681B681A687B682F
:10131C001B6822F002021A60FFF7B4FFF86012E0BB
:10132C00FFF7B0FF0246FB68D31A0A2B0BD97B6878
:10133C005B6A43F400327B685A627B68052283F84F
:10134C00202001239FE07B681B685B6803F002038D
:10135C00002BE5D17B681B7E012B08D17B681B68B9
:10136C001A687B681B6842F080021A6007E07B6891
:10137C001B681A687B681B6822F080021A607B6805
:10138C005B7E012B08D17B681B681A687B681B6825
:10139C0042F040021A6007E07B681B681A687B68A1
:1013AC001B6822F040021A607B689B7E012B08D1DF
:1013BC007B681B681A687B681B6842F020021A6005
:1013CC0007E07B681B681A687B681B6822F02002A8
:1013DC001A607B68DB7E012B08D17B681B681A685E
:1013EC007B681B6822F010021A6007E07B681B68A0
:1013FC001A687B681B6842F010021A607B681B7FBE
:10140C00012B08D17B681B681A687B681B6842F04B
:10141C0008021A6007E07B681B681A687B681B6807
:10142C0022F008021A607B685B7F012B08D17B6875
:10143C001B681A687B681B6842F004021A6007E09C
:10144C007B681B681A687B681B6822F004021A60B0
:10145C007B689A687B68DB681A437B681B691A4354
:10146C007B685B6942EA03017B685B685A1E7B6898
:10147C001B680A43DA617B6800225A627B6801228E
:10148C0083F82020002318461037BD4680BD00008D
:10149C0080B485B000AF78607B6803F00703FB6015
:1014AC000C4BDB68BB60BA684FF6FF031340BB60A4
:1014BC00FB681A02BB68134343F0BF6343F4003369
:1014CC00BB60044ABB68D36000BF1437BD4680BC08
:1014DC00704700BF00ED00E080B400AF044BDB6848
:1014EC001B0A03F007031846BD4680BC704700BFBB
:1014FC0000ED00E080B483B000AF03463960FB71AF
:10150C0097F90730002B0ADB3B68DAB20C4997F9E4
:10151C0007301201D2B20B4483F800230AE03B6877
:10152C00DAB20849FB7903F00F03043B1201D2B283
:10153C000B441A7600BF0C37BD4680BC704700BF09
:10154C0000E100E000ED00E080B489B000AFF8608D
:10155C00B9607A60FB6803F00703FB61FB69C3F1B8
:10156C000703042B28BF0423BB61FB690433062B40
:10157C0002D9FB69033B00E000237B614FF0FF3293
:10158C00BB6902FA03F3DA43BB681A407B699A40E1
:10159C004FF0FF317B6901FA03F3D9437B680B40B1
:1015AC00134318462437BD4680BC704780B582B0C3
:1015BC0000AF78607B68013BB3F1807F01D30123DE
:1015CC000FE00A4A7B68013B53600F214FF0FF305C
:1015DC00FFF790FF054B00229A60044B07221A601C
:1015EC00002318460837BD4680BD00BF10E000E060
:1015FC0080B582B000AF78607868FFF749FF00BF14
:10160C000837BD4680BD80B586B000AF0346B960D3
:10161C007A60FB7300237B61FFF75EFF78617A6869
:10162C00B9687869FFF790FF024697F90F301146B9
:10163C001846FFF75FFF00BF1837BD4680BD80B569
:10164C0082B000AF78607868FFF7B0FF03461846A9
:10165C000837BD4680BD000080B48BB000AF786009
:10166C00396000237B6200233B6269E101227B6AC3
:10167C0002FA03F3FB613B681B68FA691340BB6118
:10168C00BA69FB699A4240F058813B685B689A4A98
:10169C0093425ED0984A934275D8984A934258D058
:1016AC00964A93426FD8964A934252D0944A9342A8
:1016BC0069D8944A93424CD0924A934263D8924A46
:1016CC00934246D0904A93425DD8122B2AD8122BC3
:1016DC0059D801A252F823F05F17000839170008F7
:1016EC004B1700088D170008931700089317000874
:1016FC009317000893170008931700089317000816
:10170C009317000893170008931700089317000805
:10171C009317000893170008931700084117000847
:10172C0055170008794A934213D02CE03B68DB68CC
:10173C003B6229E03B68DB6804333B6224E03B6896
:10174C00DB6808333B621FE03B68DB680C333B62B1
:10175C001AE03B689B68002B02D104233B6213E028
:10176C003B689B68012B05D108233B627B68FA69B7
:10177C001A6109E008233B627B68FA695A6103E04D
:10178C0000233B6200E000BFBB69FF2B01D87B68E4
:10179C0001E07B6804337B61BB69FF2B02D87B6A59
:1017AC009B0002E07B6A083B9B003B617B691A68EB
:1017BC000F213B6901FA03F3DB431A40396A3B6999
:1017CC0001FA03F31A437B691A603B685B6803F008
:1017DC008053002B00F0B1804D4B9B694C4A43F079
:1017EC00010393614A4B9B6903F00103BB60BB6827
:1017FC00484A7B6A9B08023352F82330FB607B6AB1
:10180C0003F003039B000F2202FA03F3DB43FA6895
:10181C001340FB607B68404A934213D07B683F4A7D
:10182C0093420DD07B683E4A934207D07B683D4A79
:10183C00934201D1032306E0042304E0022302E0D7
:10184C00012300E000237A6A02F003029200934025
:10185C00FA681343FB602F497B6A9B080233FA68D2
:10186C0041F823203B685B6803F48033002B06D0DF
:10187C002D4B1A682C49BB6913430B6006E02A4BAD
:10188C001A68BB69DB43284913400B603B685B68F3
:10189C0003F40033002B06D0234B5A682249BB6952
:1018AC0013434B6006E0204B5A68BB69DB431E496F
:1018BC0013404B603B685B6803F48013002B06D02D
:1018CC00194B9A681849BB6913438B6006E0164B99
:1018DC009A68BB69DB43144913408B603B685B68B7
:1018EC0003F40013002B21D00F4BDA680E49BB69AF
:1018FC001343CB6021E000BF000032100000311018
:10190C000000221000002110000012100000111025
:10191C00001002400000014000080140000C014092
:10192C000010014000140140000401400B4BDA6828
:10193C00BB69DB4309491340CB607B6A01337B6293
:10194C003B681A687B6A22FA03F3002B7FF48EAE95
:10195C0000BF00BF2C37BD4680BC7047000401405F
:10196C0080B483B000AF78600B467B8013467B70ED
:10197C007B78002B03D07A887B681A6103E07B8824
:10198C001A047B681A6100BF0C37BD4680BC7047D7
:10199C0080B586B000AF78607B68002B01D1012345
:1019AC006CE27B681B6803F00103002B00F087805E
:1019BC00924B5B6803F00C03042B0CD08F4B5B68D1
:1019CC0003F00C03082B12D18C4B5B6803F48033AF
:1019DC00B3F5803F0BD1894B1B6803F40033002B0C
:1019EC006CD07B685B68002B68D1012346E27B6876
:1019FC005B68B3F5803F06D1804B1B687F4A43F48C
:101A0C00803313602EE07B685B68002B0CD17B4B22
:101A1C001B687A4A23F480331360784B1B68774A2F
:101A2C0023F4802313601DE07B685B68B3F5A02F63
:101A3C000CD1724B1B68714A43F4802313606F4BBB
:101A4C001B686E4A43F4803313600BE06B4B1B68CE
:101A5C006A4A23F480331360684B1B68674A23F48B
:101A6C00802313607B685B68002B13D0FFF70AFCA4
:101A7C00386108E0FFF706FC02463B69D31A642B79
:101A8C0001D90323FAE15D4B1B6803F40033002BEF
:101A9C00F0D014E0FFF7F6FB386108E0FFF7F2FB3B
:101AAC0002463B69D31A642B01D90323E6E1534B5D
:101ABC001B6803F40033002BF0D100E000BF7B68FF
:101ACC001B6803F00203002B63D04C4B5B6803F0E4
:101ADC000C03002B0BD0494B5B6803F00C03082B59
:101AEC001CD1464B5B6803F48033002B16D1434B5F
:101AFC001B6803F00203002B05D07B681B69012BCC
:101B0C0001D00123BAE13D4B1B6823F0F8027B683E
:101B1C005B69DB00394913430B603AE07B681B6956
:101B2C00002B20D0364B01221A60FFF7ABFB38613B
:101B3C0008E0FFF7A7FB02463B69D31A022B01D939
:101B4C0003239BE12D4B1B6803F00203002BF0D009
:101B5C002A4B1B6823F0F8027B685B69DB00274982
:101B6C0013430B6015E0264B00221A60FFF78AFB2B
:101B7C00386108E0FFF786FB02463B69D31A022B5B
:101B8C0001D903237AE11D4B1B6803F00203002BE0
:101B9C00F0D17B681B6803F00803002B3AD07B68FC
:101BAC009B69002B19D0174B01221A60FFF76AFBB7
:101BBC00386108E0FFF766FB02463B69D31A022B3B
:101BCC0001D903235AE10D4B5B6A03F00203002B8E
:101BDC00F0D0012000F0D8FA1CE00A4B00221A6069
:101BEC00FFF750FB38610FE0FFF74CFB02463B69F7
:101BFC00D31A022B08D9032340E100BF0010024086
:101C0C0000004242800442429E4B5B6A03F0020396
:101C1C00002BE9D17B681B6803F00403002B00F058
:101C2C00A6800023FB75974BDB6903F08053002BD8
:101C3C000DD1944BDB69934A43F08053D361914BA4
:101C4C00DB6903F08053BB60BB680123FB758E4BD3
:101C5C001B6803F48073002B18D18B4B1B688A4ACA
:101C6C0043F480731360FFF70DFB386108E0FFF756
:101C7C0009FB02463B69D31A642B01D90323FDE00F
:101C8C00814B1B6803F48073002BF0D07B68DB68FE
:101C9C00012B06D17B4B1B6A7A4A43F0010313627A
:101CAC002DE07B68DB68002B0CD1764B1B6A754AE8
:101CBC0023F001031362734B1B6A724A23F0040373
:101CCC0013621CE07B68DB68052B0CD16D4B1B6A27
:101CDC006C4A43F0040313626A4B1B6A694A43F073
:101CEC00010313620BE0674B1B6A664A23F0010386
:101CFC001362644B1B6A634A23F0040313627B6810
:101D0C00DB68002B15D0FFF7BDFA38610AE0FFF74E
:101D1C00B9FA02463B69D31A41F28832934201D98F
:101D2C000323ABE0574B1B6A03F00203002BEED0EE
:101D3C0014E0FFF7A7FA38610AE0FFF7A3FA0246AE
:101D4C003B69D31A41F28832934201D9032395E0BF
:101D5C004C4B1B6A03F00203002BEED1FB7D012BD5
:101D6C0005D1484BDB69474A23F08053D3617B682C
:101D7C00DB69002B00F08180424B5B6803F00C03A5
:101D8C00082B61D07B68DB69022B46D13F4B0022CC
:101D9C001A60FFF777FA386108E0FFF773FA02462A
:101DAC003B69D31A022B01D9032367E0354B1B681F
:101DBC0003F00073002BF0D17B681B6AB3F5803FF6
:101DCC0008D1304B5B6823F400327B689B682D494B
:101DDC0013434B602B4B5B6823F474127B68196ABA
:101DEC007B685B6A0B43274913434B60274B0122EB
:101DFC001A60FFF747FA386108E0FFF743FA02462A
:101E0C003B69D31A022B01D9032337E01D4B1B6806
:101E1C0003F00073002BF0D02FE01C4B00221A6053
:101E2C00FFF730FA386108E0FFF72CFA02463B69FD
:101E3C00D31A022B01D9032320E0124B1B6803F0A9
:101E4C000073002BF0D118E07B68DB69012B01D10A
:101E5C00012313E00B4B5B68FB60FB6803F48032DF
:101E6C007B681B6A9A4206D1FB6803F470127B688C
:101E7C005B6A9A4201D0012300E000231846183710
:101E8C00BD4680BD00100240007000406000424220
:101E9C0080B584B000AF786039607B68002B01D1CD
:101EAC000123D0E06A4B1B6803F007033A689A429F
:101EBC0010D9674B1B6823F0070265493B68134335
:101ECC000B60634B1B6803F007033A689A4201D01E
:101EDC000123B8E07B681B6803F00203002B20D0C1
:101EEC007B681B6803F00403002B05D0594B5B681F
:101EFC00584A43F4E06353607B681B6803F00803A3
:101F0C00002B05D0534B5B68524A43F4605353602B
:101F1C00504B5B6823F0F0027B689B684D49134380
:101F2C004B607B681B6803F00103002B40D07B687F
:101F3C005B68012B07D1474B1B6803F40033002B64
:101F4C0015D101237FE07B685B68022B07D1414BE5
:101F5C001B6803F00073002B09D1012373E03D4B88
:101F6C001B6803F00203002B01D101236BE0394BFA
:101F7C005B6823F003027B685B68364913434B6054
:101F8C00FFF780F9F8600AE0FFF77CF90246FB687E
:101F9C00D31A41F28832934201D9032353E02D4BDB
:101FAC005B6803F00C027B685B689B009A42EBD188
:101FBC00274B1B6803F007033A689A4210D2244B54
:101FCC001B6823F0070222493B6813430B60204B2C
:101FDC001B6803F007033A689A4201D0012332E0F0
:101FEC007B681B6803F00403002B08D0194B5B685B
:101FFC0023F4E0627B68DB68164913434B607B6813
:10200C001B6803F00803002B09D0124B5B6823F408
:10201C0060527B681B69DB000E4913434B6000F078
:10202C0021F802460B4B5B681B0903F00F030A49AE
:10203C00CB5C22FA03F3094A1360094B1B68184660
:10204C00FFF7DEF8002318461037BD4680BD00BFF1
:10205C0000200240001002408831000800000020DF
:10206C000400002090B48AB000AF2A4B3C1D0FCB6B
:10207C0084E80F0040F201233B800023FB61002326
:10208C00BB6100237B6200237B6100233B62224BFC
:10209C005B68FB61FB6903F00C03042B02D0082B7B
:1020AC0003D02DE01D4B3B622DE0FB699B0C03F034
:1020BC000F0307F12802134413F8243C7B61FB69DE
:1020CC0003F48033002B13D0134B5B685B0C03F0D1
:1020DC00010307F12802134413F8283CBB617B6908
:1020EC000E4A02FB03F2BB69B2FBF3F37B6204E022
:1020FC007B690B4A02FB03F37B627B6A3B6202E067
:10210C00064B3B6200BF3B6A18462837BD4690BC65
:10211C00704700BF783100080010024000127A00AE
:10212C0000093D0080B400AF024B1B681846BD4649
:10213C0080BC70470000002080B500AFFFF7F2FFB5
:10214C000246054B5B681B0A03F007030349CB5C93
:10215C0022FA03F3184680BD0010024098310008A3
:10216C0080B500AFFFF7DEFF0246054B5B68DB0A6C
:10217C0003F007030349CB5C22FA03F3184680BD36
:10218C00001002409831000880B485B000AF786030
:10219C000A4B1B680A4AA2FB03235B0A7A6802FB00
:1021AC0003F3FB6000BFFB685A1EFA60002BF9D1E9
:1021BC0000BF00BF1437BD4680BC70470000002034
:1021CC00D34D621080B582B000AF78607B68002B75
:1021DC0001D1012376E07B685B6A002B08D17B6818
:1021EC005B68B3F5827F09D07B680022DA6105E079
:1021FC007B6800221A617B6800225A617B6800228E
:10220C009A627B6893F85130DBB2002B06D17B6865
:10221C00002283F850207868FEF79EFB7B68022230
:10222C0083F851207B681B681A687B681B6822F056
:10223C0040021A607B685B6803F482727B689B685F
:10224C0003F404431A437B68DB6803F400631A430A
:10225C007B681B6903F002031A437B685B6903F01C
:10226C0001031A437B689B6903F400731A437B6870
:10227C00DB6903F038031A437B681B6A03F08003A5
:10228C0042EA03017B689B6A03F400527B681B687B
:10229C000A431A607B689B691A0C7B681B6802F006
:1022AC0004025A607B681B68DA697B681B6822F43D
:1022BC000062DA617B6800225A657B68012283F830
:1022CC005120002318460837BD4680BD80B58CB020
:1022DC0000AFF860B9607A607B800123FB62002359
:1022EC0087F82B30FB6893F85030012B01D1022377
:1022FC008AE1FB68012283F85020FEF7C3FF786265
:10230C00FB6893F8513087F82330FB685B68FB61FE
:10231C007B887B8397F82330012B0FD0FB69B3F5B7
:10232C00827F07D1FB689B68002B03D197F8233081
:10233C00042B03D0022387F82B305BE1BB68002B06
:10234C0005D07B68002B02D07B88002B03D10123A6
:10235C0087F82B304EE1FB6893F85130DBB2042B3D
:10236C0003D0FB68052283F85120FB6800225A65D4
:10237C00FB687A689A63FB687A88DA87FB687A88E4
:10238C009A87FB68BA681A63FB687A88DA86FB68F6
:10239C007A889A86FB6800221A64FB6800225A64C9
:1023AC00FB681B681B6803F04003402B07D0FB68DD
:1023BC001B681A68FB681B6842F040021A60FB68D5
:1023CC00DB68B3F5006F78D1FB685B68002B02D03B
:1023DC007B8B012B66D1FB681B6B1A88FB681B6817
:1023EC00DA60FB681B6B9A1CFB681A63FB68DB8E5C
:1023FC009BB2013B9AB2FB68DA8653E0FB681B6820
:10240C009B6803F00203022B1BD1FB68DB8E9BB293
:10241C00002B16D0FB6A012B13D1FB681B6B1A889F
:10242C00FB681B68DA60FB681B6B9A1CFB681A6301
:10243C00FB68DB8E9BB2013B9AB2FB68DA86002309
:10244C00FB62FB681B689B6803F00103012B19D12D
:10245C00FB68DB8F9BB2002B14D0FB681B68DA681F
:10246C00FB689B6B92B21A80FB689B6B9A1CFB6897
:10247C009A63FB68DB8F9BB2013B9AB2FB68DA87ED
:10248C000123FB62FEF7FEFE02467B6AD31ABA6B8F
:10249C009A4207D8BB6BB3F1FF3F03D0032387F8F5
:1024AC002B30A7E0FB68DB8E9BB2002BA6D1FB6820
:1024BC00DB8F9BB2002BA1D17CE0FB685B68002B0F
:1024CC0002D07B8B012B6BD1FB681A6BFB681B68F2
:1024DC000C3312781A70FB681B6B5A1CFB681A635E
:1024EC00FB68DB8E9BB2013B9AB2FB68DA8657E045
:1024FC00FB681B689B6803F00203022B1CD1FB6872
:10250C00DB8E9BB2002B17D0FB6A012B14D1FB681E
:10251C001A6BFB681B680C3312781A70FB681B6B08
:10252C005A1CFB681A63FB68DB8E9BB2013B9AB2A8
:10253C00FB68DA860023FB62FB681B689B6803F070
:10254C000103012B19D1FB68DB8F9BB2002B14D03C
:10255C00FB681B68DA68FB689B6BD2B21A70FB686D
:10256C009B6B5A1CFB689A63FB68DB8F9BB2013B2D
:10257C009AB2FB68DA870123FB62FEF783FE024600
:10258C007B6AD31ABA6B9A4203D8BB6BB3F1FF3F89
:10259C0002D1BB6B002B03D1032387F82B3029E02E
:1025AC00FB68DB8E9BB2002BA2D1FB68DB8F9BB24E
:1025BC00002B9DD17A6AB96BF86800F0B1F803462C
:1025CC00002B06D0012387F82B30FB6820225A659C
:1025DC0010E0FB689B68002B0BD100237B61FB6830
:1025EC001B68DB687B61FB681B689B687B617B6994
:1025FC0000E000BFFB68012283F85120FB68002239
:10260C0083F8502097F82B3018463037BD4680BDE4
:10261C0080B588B000AFF860B9603B601346FB71C1
:10262C00FEF730FE0246BB6A9B1A3A681344FB6104
:10263C00FEF728FEB861394B1B685B011B0DFA696C
:10264C0002FB03F37B6154E03B68B3F1FF3F50D0D6
:10265C00FEF718FE0246BB69D31AFA699A4202D9F0
:10266C00FB69002B3DD1FB681B685A68FB681B6833
:10267C0022F0E0025A60FB685B68B3F5827F11D1EF
:10268C00FB689B68B3F5004F04D0FB689B68B3F5FF
:10269C00806F07D1FB681B681A68FB681B6822F007
:1026AC0040021A60FB689B6AB3F5005F0FD1FB68B0
:1026BC001B681A68FB681B6822F400521A60FB68DE
:1026CC001B681A68FB681B6842F400521A60FB68AE
:1026DC00012283F85120FB68002283F85020032349
:1026EC0017E07B69002B01D10023FB617B69013B67
:1026FC007B61FB681B689A68BB681340BA689A4296
:10270C000CBF01230023DBB21A46FB799A429BD102
:10271C00002318462037BD4680BD00BF00000020B6
:10272C0080B586B002AFF860B9607A607B680093C0
:10273C00BB6800228021F868FFF76AFF0346002B74
:10274C0007D0FB685B6D43F02002FB685A650323DE
:10275C0000E0002318461037BD4680BD80B582B01E
:10276C0000AF78607B68002B01D101233FE07B68D0
:10277C0093F83D30DBB2002B06D17B68002283F846
:10278C003C207868FEF75EF97B68242283F83D20B4
:10279C007B681B68DA687B681B6822F40052DA607D
:1027AC00786800F029F87B681B681A697B681B68DD
:1027BC0022F490421A617B681B685A697B681B681B
:1027CC0022F02A025A617B681B68DA687B681B68F6
:1027DC0042F40052DA607B6800221A647B68202283
:1027EC0083F83D207B68202283F83E200023184686
:1027FC000837BD4680BD000080B584B000AF78605E
:10280C007B681B681B6923F440517B68DA687B6822
:10281C001B680A431A617B689A687B681B691A43B8
:10282C007B685B691343BB607B681B68DB6823F4C4
:10283C00B05323F00C037A681268B9680B43D36069
:10284C007B681B685B6923F440717B689A697B68C1
:10285C001B680A435A617B681B682C4A934203D15C
:10286C00FFF77EFCF86002E0FFF766FCF860FA68A0
:10287C0013469B0013449A001A447B685B689B00C8
:10288C00B2FBF3F3224AA2FB03235B091901FA689A
:10289C0013469B0013449A001A447B685B689B00A8
:1028AC00B2FBF3F21A4BA3FB02035B09642000FB9F
:1028BC0003F3D31A1B013233154AA2FB03235B0922
:1028CC0003F0F0031944FA6813469B0013449A0072
:1028DC001A447B685B689B00B2FBF3F20C4BA3FBC6
:1028EC0002035B09642000FB03F3D31A1B01323390
:1028FC00074AA2FB03235B0903F00F027B681B68EA
:10290C000A449A6000BF1037BD4680BD00380140B4
:10291C001F85EB5180B582B000AF7860FDF754FF96
:10292C0000BF0837BD4680BD80B586B002AF786069
:10293C000B467B800B4B4FF400425A6107F10E02A1
:10294C00B91C4FF0FF33009301230748FFF7BEFC7F
:10295C00044B4FF400421A61FB8918461037BD46F0
:10296C0080BD00BF00080140E802002080B588B09F
:10297C0000AF786007F1100300221A605A609A6069
:10298C00DA601A4B9B69194A43F004039361174BA5
:10299C009B6903F00403FB60FB68144B9B69134AAF
:1029AC0043F008039361114B9B6903F00803BB6070
:1029BC00BB6800223C210E48FEF7D2FF00224FF4E8
:1029CC0040610C48FEF7CCFF3C233B6101237B614B
:1029DC000023BB610223FB6107F110031946044875
:1029EC00FEF73AFE00BF2037BD4680BD0010024006
:1029FC0000080140000C014080B483B000AF786047
:102A0C0000BF0C37BD4680BC704780B483B000AFAC
:102A1C0078600B467B8013463B8000BF0C37BD466D
:102A2C0080BC704780B483B000AF78600B46FB70FD
:102A3C001346BB70FB78002B03D00B4B20221A6182
:102A4C0002E0094B20225A61BB78002B03D0064BC5
:102A5C0010221A6102E0044B10225A6100BF0C379D
:102A6C00BD4680BC704700BF0008014080B483B0F5
:102A7C0000AF78600B46FB701346BB70FB78002BE5
:102A8C0003D00B4B08221A6102E0094B08225A6151
:102A9C00BB78002B03D0064B04221A6102E0044BD6
:102AAC0004225A6100BF0C37BD4680BC704700BF82
:102ABC000008014080B483B000AF786039607B6857
:102ACC0000221A607B683A685A607B6800229A6020
:102ADC007B680022DA607B6800221A617B681846EA
:102AEC000C37BD4680BC704780B483B000AF7860B3
:102AFC0039607B6800221A607B683A685A607B6890
:102B0C0000229A607B680022DA607B6800221A61DE
:102B1C007B6818460C37BD4680BC704780B483B0C8
:102B2C0000AF786039607B6800221A607B680022F5
:102B3C005A607B683A689A607B680022DA607B682E
:102B4C0000221A617B684FF000025A617B680022F8
:102B5C009A617B680022DA617B6800221A627B68CA
:102B6C0000225A627B6800229A627B6818460C37F6
:102B7C00BD4680BC704780B483B000AF78603960CC
:102B8C007B6800221A607B6800225A607B683A6876
:102B9C009A607B680022DA607B6800221A617B688D
:102BAC0000225A617B6800229A617B680022DA61FC
:102BBC007B6818460C37BD4680BC704780B483B028
:102BCC0000AF786039607B6800221A607B68002255
:102BDC005A607B683A689A607B680022DA607B688E
:102BEC0000221A617B6800225A617B68C8229A61B4
:102BFC007B6800221A777B6800221A627B680022AD
:102C0C005A627B6800229A627B680022DA627B68D7
:102C1C0000221A637B6800225A637B6818460C37C3
:102C2C00BD4680BC704780B582B000AF78607B68D1
:102C3C001A460023136053609360D3601361536191
:102C4C007B68183364220021184600F037FA7B6841
:102C5C0018460837BD4680BD80B582B000AF78609D
:102C6C007B6844F620621A607B681B68154A92FBED
:102C7C00F3F27B685A607B68083379681846FFF773
:102C8C0019FF7B681C3379681846FFF72DFF7B68AA
:102C9C00303379681846FFF741FF7B685C337968FD
:102CAC001846FFF768FF7B687C3379681846FFF796
:102CBC0085FF7B680022C3F8B4207B681846083770
:102CCC00BD4680BD40420F0080B582B000AF786039
:102CDC007B68C8221A607B684FF480725A607B68EC
:102CEC001B687A68526802FB03F27B689A607B6807
:102CFC000C331846FFF797FF7B6888331846FFF7AD
:102D0C00ABFF7B6803F5A6727B68C3F840217B6838
:102D1C000022C3F844217B680022C3F848217B6859
:102D2C0003F5A6737968184600F05CF87B680022FE
:102D3C00DA607B684FF4FA621A617B684FF47A723E
:102D4C005A617B684FF4FA621A627B689A68134680
:102D5C001B019B1A5B001A467B689A617B689B6817
:102D6C004FF47A7202FB03F27B68DA617B68002213
:102D7C0083F884207B68243330220021184600F02D
:102D8C009DF97B6805229A627B681E22DA627B6859
:102D9C00543330220021184600F090F97B68C82289
:102DAC005A657B6850229A657B684FF49672DA6597
:102DBC007B68FA221A667B6803F188027B680C3305
:102DCC0019461046FEF701F97B68D3F840217B6861
:102DDC00243319461046FEF71FF97B68184608374E
:102DEC00BD4680BD80B483B000AF786039607B682D
:102DFC0000221A607B6800229A717B680022DA71CB
:102E0C007B680022DA607B6800221A617B680022F2
:102E1C005A617B6800229A617B680022DA617B68C8
:102E2C0000221A627B6800225A627B6800229A6236
:102E3C007B680022DA627B6800221A637B680022BE
:102E4C005A637B6800229A637B680022DA637B6892
:102E5C00002283F840207B68002283F841207B68A5
:102E6C0000225A647B6800229A647B680022DA6430
:102E7C007B68002283F850207B68002283F8512065
:102E8C007B68002283F852207B6800225A657B689D
:102E9C0000229A657B680022DA657B68002283F841
:102EAC0060207B683A689A607B6800221A717B68A4
:102EBC0000225A717B6818460C37BD4680BC70479F
:102ECC0080B483B000AF7860084A7B681A607B6876
:102EDC00043300221A609A807B684FF48042DA60D7
:102EEC007B6818460C37BD4680BC7047603A0008BA
:102EFC0080B582B000AF786039607B681846FFF708
:102F0C00DFFF084A7B681A607B68103300221A6066
:102F1C009A807B683A689A617B6818460837BD4688
:102F2C0080BD00BFDC39000880B582B000AF78608E
:102F3C007B6806491846FFF7DBFF054A7B681A6079
:102F4C007B6818460837BD4680BD00BF007C010871
:102F5C00F839000880B483B000AF7860094A7B6808
:102F6C001A607B68043300221A609A807B680A33EB
:102F7C0000221A609A807B6818460C37BD4680BCCC
:102F8C00704700BF443A000880B582B000AF78604B
:102F9C007B681846FFF7DEFF034A7B681A607B6884
:102FAC0018460837BD4680BDAC39000880B582B0E4
:102FBC0000AF78607B681A460023136053609360FF
:102FCC00D3607B681846FFF7DFFF044A7B681A6002
:102FDC007B6818460837BD4680BD00BF143A000810
:102FEC0080B582B000AF786039607B68012B0DD161
:102FFC003B684FF6FF72934208D10648FFF764FE18
:10300C000548FFF7D3FF0548FFF78EFF00BF0837D1
:10301C00BD4680BD900000204002002050020020E0
:10302C0080B500AF4FF6FF710120FFF7D9FF80BDCF
:10303C0008B500F00DF808B5804700F00EF8000058
:10304C00024B1868BFF35B8F704700BF0C00002069
:10305C0008B5FFF7F5FFFFF7EEFF062008B500F007
:10306C005DF80120FDF786FD014B1868704700BF25
:10307C001000002070B500260C4D0D4C641BA410E4
:10308C00A64209D100F066F800260A4D0A4C641BD2
:10309C00A410A64205D170BD55F8043B98470136E3
:1030AC00EEE755F8043B98470136F2E7CC3A0008B6
:1030BC00CC3A0008CC3A0008D43A00080346024443
:1030CC00934200D1704703F8011BF9E71F2938B56B
:1030DC0004460D4604D9162303604FF0FF3038BD6B
:1030EC00426C12B152F821304BB9204600F030F846
:1030FC002A4601462046BDE8384000F017B8012B9F
:10310C000AD0591C03D1162303600120E7E70024E1
:10311C00284642F8254098470020E0E7024B01463C
:10312C001868FFF7D3BF00BF1000002038B500238C
:10313C00064D0446084611462B60FDF70BFD431C5B
:10314C0002D12B6803B1236038BD00BF14040020EA
:10315C00FDF7F9BCF8B500BFF8BC08BC9E4670473B
:0C316C00F8B500BFF8BC08BC9E467047D8
:1031780002030405060708090A0B0C0D0E0F1010B0
:10318800000000000000000001020304060708090F
:1031980000000000010203040000190032004B0087
:1031A80065007E009700B000C900E200FB00140132
:1031B8002D0146015F0178019101AA01C301DC01DB
:1031C800F5010E0227024002590272028B02A30285
:1031D800BC02D502EE0206031F033803500369033D
:1031E80081039A03B203CB03E303FC0314042C0406
:1031F80044045D0475048D04A504BD04D504ED04E0
:1032080005051D0534054C0564057C059305AB05CE
:10321800C205DA05F10508061F0637064E066506DB
:103228007C069306AA06C106D706EE0605071B0705
:10323800320748075E0775078B07A107B707CD0751
:10324800E307F9070E0824083A084F0865087A08C2
:103258008F08A508BA08CF08E408F8080D0922095C
:1032680037094B095F09740988099C09B009C40921
:10327800D809EC09FF09130A260A3A0A4D0A600A16
:10328800730A860A990AAC0ABF0AD10AE40AF60A3E
:10329800080B1B0B2D0B3E0B500B620B740B850B95
:1032A800970BA80BB90BCA0BDB0BEC0BFC0B0D0C2B
:1032B8001E0C2E0C3E0C4E0C5E0C6E0C7E0C8E0CF6
:1032C8009D0CAC0CBC0CCB0CDA0CE90CF80C060D04
:1032D800150D230D320D400D4E0D5C0D690D770D4A
:1032E800850D920D9F0DAC0DB90DC60DD30DDF0DDB
:1032F800EC0DF80D040E100E1C0E280E340E3F0EA9
:103308004B0E560E610E6C0E770E810E8C0E960EBD
:10331800A10EAB0EB50EBF0EC80ED20EDB0EE40E1C
:10332800EE0EF70EFF0E080F110F190F210F290FC0
:10333800310F390F410F480F500F570F5E0F650FB0
:103348006C0F720F790F7F0F850F8B0F910F970FEF
:103358009C0FA20FA70FAC0FB10FB60FBB0FBF0F7B
:10336800C40FC80FCC0FD00FD40FD70FDB0FDE0F51
:10337800E10FE40FE70FEA0FEC0FEF0FF10FF30F78
:10338800F50FF70FF80FFA0FFB0FFC0FFD0FFE0FED
:10339800FF0FFF0F00100010001000100010FF0FAB
:1033A800FF0FFE0FFD0FFC0FFB0FFA0FF80FF70FC3
:1033B800F50FF30FF10FEF0FEC0FEA0FE70FE40F24
:1033C800E10FDE0FDB0FD70FD40FD00FCC0FC80FD4
:1033D800C40FBF0FBB0FB60FB10FAC0FA70FA20FD3
:1033E8009C0F970F910F8B0F850F7F0F790F720F1F
:1033F8006C0F650F5E0F570F500F480F410F390FB5
:10340800310F290F210F190F110F080FFF0EF70E9B
:10341800EE0EE40EDB0ED20EC80EBF0EB50EAB0ECE
:10342800A10E960E8C0E810E770E6C0E610E560E46
:103438004B0E3F0E340E280E1C0E100E040EF80D07
:10344800EC0DDF0DD30DC60DB90DAC0D9F0D920D12
:10345800850D770D690D5C0D4E0D400D320D230D58
:10346800150D060DF80CE90CDA0CCB0CBC0CAC0CE9
:103478009D0C8E0C7E0C6E0C5E0C4E0C3E0C2E0CB5
:103488001E0C0D0CFC0BEC0BDB0BCA0BB90BA80BC1
:10349800970B850B740B620B500B3E0B2D0B1B0B04
:1034A800080BF60AE40AD10ABF0AAC0A990A860A86
:1034B800730A600A4D0A3A0A260A130AFF09EC0938
:1034C800D809C409B0099C09880974095F094B091E
:1034D800370922090D09F808E408CF08BA08A50831
:1034E8008F087A0865084F083A0824080E08F90773
:1034F800E307CD07B707A1078B0775075E074807DE
:1035080032071B070507EE06D706C106AA0693066B
:103518007C0665064E0637061F060806F105DA051D
:10352800C205AB0593057C0564054C0534051D05EE
:103538000505ED04D504BD04A5048D0475045D04DA
:1035480044042C041404FC03E303CB03B2039A03DE
:1035580081036903500338031F030603EE02D502F3
:10356800BC02A3028B0272025902400227020E0219
:10357800F501DC01C301AA01910178015F0146014F
:103588002D011401FB00E200C900B00097007E0085
:1035980065004B00320019000000E7FFCEFFB5FFC1
:1035A8009BFF82FF69FF50FF37FF1EFF05FFECFE00
:1035B800D3FEBAFEA1FE88FE6FFE56FE3DFE24FE37
:1035C8000BFEF2FDD9FDC0FDA7FD8EFD75FD5DFD6D
:1035D80044FD2BFD12FDFAFCE1FCC8FCB0FC97FC95
:1035E8007FFC66FC4EFC35FC1DFC04FCECFBD4FBAC
:1035F800BCFBA3FB8BFB73FB5BFB43FB2BFB13FBB2
:10360800FBFAE3FACCFAB4FA9CFA84FA6DFA55FAA2
:103618003EFA26FA0FFAF8F9E1F9C9F9B2F99BF975
:1036280084F96DF956F93FF929F912F9FBF8E5F82B
:10363800CEF8B8F8A2F88BF875F85FF849F833F8BF
:103648001DF807F8F2F7DCF7C6F7B1F79BF786F72E
:1036580071F75BF746F731F71CF708F7F3F6DEF674
:10366800C9F6B5F6A1F68CF678F664F650F63CF68F
:1036780028F614F601F6EDF5DAF5C6F5B3F5A0F57A
:103688008DF57AF567F554F541F52FF51CF50AF532
:10369800F8F4E5F4D3F4C2F4B0F49EF48CF47BF4BB
:1036A80069F458F447F436F425F414F404F4F3F305
:1036B800E2F3D2F3C2F3B2F3A2F392F382F372F31A
:1036C80063F354F344F335F326F317F308F3FAF2EC
:1036D800EBF2DDF2CEF2C0F2B2F2A4F297F289F286
:1036E8007BF26EF261F254F247F23AF22DF221F2D5
:1036F80014F208F2FCF1F0F1E4F1D8F1CCF1C1F1E7
:10370800B5F1AAF19FF194F189F17FF174F16AF1B1
:103718005FF155F14BF141F138F12EF125F11CF132
:1037280012F109F101F1F8F0EFF0E7F0DFF0D7F06E
:10373800CFF0C7F0BFF0B8F0B0F0A9F0A2F09BF05E
:1037480094F08EF087F081F07BF075F06FF069F0FF
:1037580064F05EF059F054F04FF04AF045F041F053
:103768003CF038F034F030F02CF029F025F022F05D
:103778001FF01CF019F016F014F011F00FF00DF016
:103788000BF009F008F006F005F004F003F002F081
:1037980001F001F000F000F000F000F000F001F09E
:1037A80001F002F003F004F005F006F008F009F06B
:1037B8000BF00DF00FF011F014F016F019F01CF0EA
:1037C8001FF022F025F029F02CF030F034F038F01A
:1037D8003CF041F045F04AF04FF054F059F05EF0FB
:1037E80064F069F06FF075F07BF081F087F08EF08F
:1037F80094F09BF0A2F0A9F0B0F0B8F0BFF0C7F0D9
:10380800CFF0D7F0DFF0E7F0EFF0F8F001F109F1D1
:1038180012F11CF125F12EF138F141F14BF155F17E
:103828005FF16AF174F17FF189F194F19FF1AAF1E6
:10383800B5F1C1F1CCF1D8F1E4F1F0F1FCF108F205
:1038480014F221F22DF23AF247F254F261F26EF2DA
:103858007BF289F297F2A4F2B2F2C0F2CEF2DDF274
:10386800EBF2FAF208F317F326F335F344F354F3C3
:1038780063F372F382F392F3A2F3B2F3C2F3D2F3D7
:10388800E2F3F3F304F414F425F436F447F458F4AB
:1038980069F47BF48CF49EF4B0F4C2F4D3F4E5F448
:1038A800F8F40AF51CF52FF541F554F567F57AF5A6
:1038B8008DF5A0F5B3F5C6F5DAF5EDF501F614F6D4
:1038C80028F63CF650F664F678F68CF6A1F6B5F6CE
:1038D800C9F6DEF6F3F608F71CF731F746F75BF79B
:1038E80071F786F79BF7B1F7C6F7DCF7F2F707F839
:1038F8001DF833F849F85FF875F88BF8A2F8B8F8AE
:10390800CEF8E5F8FBF812F929F93FF956F96DF9FF
:1039180084F99BF9B2F9C9F9E1F9F8F90FFA26FA2D
:103928003EFA55FA6DFA84FA9CFAB4FACCFAE3FA3C
:10393800FBFA13FB2BFB43FB5BFB73FB8BFBA3FB30
:10394800BCFBD4FBECFB04FC1DFC35FC4EFC66FC0C
:103958007FFC97FCB0FCC8FCE1FCFAFC12FD2BFDD7
:1039680044FD5DFD75FD8EFDA7FDC0FDD9FDF2FD91
:103978000BFE24FE3DFE56FE6FFE88FEA1FEBAFE3B
:10398800D3FEECFE05FF1EFF37FF50FF69FF82FFE5
:103998009BFFB5FFCEFFE7FF00000000000000001E
:1039A800000000003F0C0008690C0008ED0D00083D
:1039B8003D0E0008C50D00083D3000083D300008E8
:1039C8003D3000083D3000083D3000080000000090
:1039D800000000003F100008A3100008C9110008EB
:1039E8003D3000083D3000080000000000000000E5
:1039F8003F100008A3100008C91100082129000879
:103A08003529000800000000000000003F0C0008F5
:103A1800690C0008ED0D00083D0E0008C50D0008F2
:103A280079290008052A0008172A0008312A000801
:103A3800792A000800000000000000003D3000085E
:103A48003D3000083D3000083D3000083D3000089A
:103A580000000000000000003D3000083D30000874
:103A68003D300008000000000000000000000000D9
:103A7800000000000000000000000000000000003E
:103A8800000000000000000000000000000000002E
:103A9800000000000000000000000000000000001E
:103AA800000000000000000000000000000000000E
:103AB80000000000000000000000000000000000FE
:043AC80000000000FA
:083ACC00310100082D30000853
:043AD4000D010008D8
:103AD8000024F40010000000010000006730000816
:103AE80014000020000000008C3A0008AC3A0008DE
:103AF8006C3A000800000000000000000000000010
:103B080000000000000000000000000000000000AD
:103B1800000000000000000000000000000000009D
:103B2800000000000000000000000000000000008D
:103B3800000000000000000000000000000000007D
:043B48000000000079
:0400000508000BF5EF
:00000001FF
